{"project/contracts/FraudDetection.sol":{"FraudDetection":{"abi":[{"inputs":[],"stateMutability":"nonpayable","type":"constructor"},{"anonymous":false,"inputs":[{"indexed":true,"internalType":"address","name":"sender","type":"address"},{"indexed":false,"internalType":"string","name":"message","type":"string"},{"indexed":false,"internalType":"uint256","name":"timestamp","type":"uint256"}],"name":"AlertTriggered","type":"event"},{"anonymous":false,"inputs":[{"indexed":true,"internalType":"bytes32","name":"hash","type":"bytes32"},{"indexed":false,"internalType":"string","name":"version","type":"string"},{"indexed":false,"internalType":"uint256","name":"timestamp","type":"uint256"}],"name":"ModelHashRegistered","type":"event"},{"anonymous":false,"inputs":[{"indexed":true,"internalType":"address","name":"wallet","type":"address"},{"indexed":false,"internalType":"uint256","name":"threshold","type":"uint256"},{"indexed":false,"internalType":"uint256","name":"fraudScore","type":"uint256"},{"indexed":false,"internalType":"uint256","name":"txCount","type":"uint256"},{"indexed":false,"internalType":"uint256","name":"timestamp","type":"uint256"}],"name":"ThresholdUpdated","type":"event"},{"anonymous":false,"inputs":[{"indexed":true,"internalType":"string","name":"txHash","type":"string"},{"indexed":true,"internalType":"address","name":"sender","type":"address"},{"indexed":false,"internalType":"string","name":"decision","type":"string"},{"indexed":false,"internalType":"string","name":"action","type":"string"},{"indexed":false,"internalType":"uint256","name":"fraudScore","type":"uint256"},{"indexed":false,"internalType":"uint256","name":"threshold","type":"uint256"},{"indexed":false,"internalType":"uint256","name":"timestamp","type":"uint256"}],"name":"TransactionLogged","type":"event"},{"anonymous":false,"inputs":[{"indexed":true,"internalType":"address","name":"wallet","type":"address"},{"indexed":false,"internalType":"uint256","name":"timestamp","type":"uint256"}],"name":"WalletBlacklisted","type":"event"},{"inputs":[],"name":"BLOCK_THRESHOLD_ETH","outputs":[{"internalType":"uint256","name":"","type":"uint256"}],"stateMutability":"view","type":"function"},{"inputs":[],"name":"FREEZE_THRESHOLD_ETH","outputs":[{"internalType":"uint256","name":"","type":"uint256"}],"stateMutability":"view","type":"function"},{"inputs":[{"internalType":"address","name":"","type":"address"}],"name":"blacklisted","outputs":[{"internalType":"bool","name":"","type":"bool"}],"stateMutability":"view","type":"function"},{"inputs":[{"internalType":"address","name":"wallet","type":"address"}],"name":"getThresholdCount","outputs":[{"internalType":"uint256","name":"","type":"uint256"}],"stateMutability":"view","type":"function"},{"inputs":[{"internalType":"address","name":"wallet","type":"address"}],"name":"getThresholdHistory","outputs":[{"components":[{"internalType":"uint256","name":"threshold","type":"uint256"},{"internalType":"uint256","name":"fraudScore","type":"uint256"},{"internalType":"uint256","name":"txCount","type":"uint256"},{"internalType":"uint256","name":"amountWei","type":"uint256"},{"internalType":"uint256","name":"timestamp","type":"uint256"},{"internalType":"bytes32","name":"prevHash","type":"bytes32"}],"internalType":"struct FraudDetection.ThresholdRecord[]","name":"","type":"tuple[]"}],"stateMutability":"view","type":"function"},{"inputs":[],"name":"getTotalTransactions","outputs":[{"internalType":"uint256","name":"","type":"uint256"}],"stateMutability":"view","type":"function"},{"inputs":[{"internalType":"string","name":"h","type":"string"}],"name":"getTransaction","outputs":[{"components":[{"internalType":"string","name":"txHash","type":"string"},{"internalType":"address","name":"sender","type":"address"},{"internalType":"address","name":"receiver","type":"address"},{"internalType":"uint256","name":"amountWei","type":"uint256"},{"internalType":"uint256","name":"fraudScore","type":"uint256"},{"internalType":"uint256","name":"threshold","type":"uint256"},{"internalType":"string","name":"decision","type":"string"},{"internalType":"string","name":"action","type":"string"},{"internalType":"uint256","name":"timestamp","type":"uint256"},{"internalType":"bool","name":"exists","type":"bool"}],"internalType":"struct FraudDetection.TransactionRecord","name":"","type":"tuple"}],"stateMutability":"view","type":"function"},{"inputs":[{"internalType":"address","name":"wallet","type":"address"}],"name":"isBlacklisted","outputs":[{"internalType":"bool","name":"","type":"bool"}],"stateMutability":"view","type":"function"},{"inputs":[{"internalType":"string","name":"txHash","type":"string"},{"internalType":"address","name":"sender","type":"address"},{"internalType":"address","name":"receiver","type":"address"},{"internalType":"uint256","name":"amountWei","type":"uint256"},{"internalType":"uint256","name":"fraudScore","type":"uint256"},{"internalType":"uint256","name":"threshold","type":"uint256"},{"internalType":"string","name":"decision","type":"string"},{"internalType":"string","name":"action","type":"string"}],"name":"logTransaction","outputs":[],"stateMutability":"nonpayable","type":"function"},{"inputs":[{"internalType":"address","name":"wallet","type":"address"}],"name":"manualBlacklist","outputs":[],"stateMutability":"nonpayable","type":"function"},{"inputs":[],"name":"modelDeployedAt","outputs":[{"internalType":"uint256","name":"","type":"uint256"}],"stateMutability":"view","type":"function"},{"inputs":[],"name":"modelHash","outputs":[{"internalType":"bytes32","name":"","type":"bytes32"}],"stateMutability":"view","type":"function"},{"inputs":[],"name":"modelVersion","outputs":[{"internalType":"string","name":"","type":"string"}],"stateMutability":"view","type":"function"},{"inputs":[],"name":"owner","outputs":[{"internalType":"address","name":"","type":"address"}],"stateMutability":"view","type":"function"},{"inputs":[{"internalType":"string","name":"","type":"string"}],"name":"records","outputs":[{"internalType":"string","name":"txHash","type":"string"},{"internalType":"address","name":"sender","type":"address"},{"internalType":"address","name":"receiver","type":"address"},{"internalType":"uint256","name":"amountWei","type":"uint256"},{"internalType":"uint256","name":"fraudScore","type":"uint256"},{"internalType":"uint256","name":"threshold","type":"uint256"},{"internalType":"string","name":"decision","type":"string"},{"internalType":"string","name":"action","type":"string"},{"internalType":"uint256","name":"timestamp","type":"uint256"},{"internalType":"bool","name":"exists","type":"bool"}],"stateMutability":"view","type":"function"},{"inputs":[{"internalType":"bytes32","name":"hash","type":"bytes32"},{"internalType":"string","name":"version","type":"string"}],"name":"registerModelHash","outputs":[],"stateMutability":"nonpayable","type":"function"},{"inputs":[{"internalType":"address","name":"wallet","type":"address"}],"name":"removeBlacklist","outputs":[],"stateMutability":"nonpayable","type":"function"},{"inputs":[{"internalType":"address","name":"","type":"address"},{"internalType":"uint256","name":"","type":"uint256"}],"name":"thresholdHistory","outputs":[{"internalType":"uint256","name":"threshold","type":"uint256"},{"internalType":"uint256","name":"fraudScore","type":"uint256"},{"internalType":"uint256","name":"txCount","type":"uint256"},{"internalType":"uint256","name":"amountWei","type":"uint256"},{"internalType":"uint256","name":"timestamp","type":"uint256"},{"internalType":"bytes32","name":"prevHash","type":"bytes32"}],"stateMutability":"view","type":"function"},{"inputs":[{"internalType":"uint256","name":"","type":"uint256"}],"name":"txHashes","outputs":[{"internalType":"string","name":"","type":"string"}],"stateMutability":"view","type":"function"},{"inputs":[{"internalType":"address","name":"wallet","type":"address"},{"internalType":"uint256","name":"threshold","type":"uint256"},{"internalType":"uint256","name":"fraudScore","type":"uint256"},{"internalType":"uint256","name":"amountWei","type":"uint256"}],"name":"updateWalletThreshold","outputs":[],"stateMutability":"nonpayable","type":"function"},{"inputs":[{"internalType":"bytes32","name":"currentHash","type":"bytes32"}],"name":"verifyModelHash","outputs":[{"internalType":"bool","name":"","type":"bool"}],"stateMutability":"view","type":"function"},{"inputs":[{"internalType":"address","name":"","type":"address"}],"name":"walletLastThreshold","outputs":[{"internalType":"uint256","name":"","type":"uint256"}],"stateMutability":"view","type":"function"},{"inputs":[{"internalType":"address","name":"","type":"address"}],"name":"walletTxCount","outputs":[{"internalType":"uint256","name":"","type":"uint256"}],"stateMutability":"view","type":"function"}],"evm":{"bytecode":{"linkReferences":{},"object":"6080604052680168d28e3f002800006001556802b5e3af16b18800006002553480156028575f5ffd5b50335f5f6101000a81548173ffffffffffffffffffffffffffffffffffffffff021916908373ffffffffffffffffffffffffffffffffffffffff160217905550612b24806100755f395ff3fe608060405234801561000f575f5ffd5b506004361061014b575f3560e01c8063b0188a2c116100c1578063e040708f1161007a578063e040708f146103f7578063e840be3214610413578063e858a26214610431578063eb91e65114610461578063edb3ba0b1461047d578063fe575a871461049b5761014b565b8063b0188a2c146102fb578063b5c604ff14610319578063b663db6014610337578063bbd7be3114610367578063d05bf9cb14610397578063dbac26e9146103c75761014b565b80637549a936116101135780637549a936146101fc5780638da5cb5b1461022c5780639109d0d11461024a57806392a1ab491461027a578063ac2ccd07146102af578063ac48ae7e146102df5761014b565b80631b2ccc091461014f578063288314a61461016d57806345071d681461018b578063541e771d146101a7578063609efeb3146101e0575b5f5ffd5b6101576104cb565b6040516101649190611aa5565b60405180910390f35b6101756104d1565b6040516101829190611ad6565b60405180910390f35b6101a560048036038101906101a09190611b5a565b6104d7565b005b6101c160048036038101906101bc9190611cc1565b610571565b6040516101d79a99989796959493929190611d91565b60405180910390f35b6101fa60048036038101906101f59190611e6a565b6107b5565b005b61021660048036038101906102119190611ef8565b610bb5565b6040516102239190611f23565b60405180910390f35b610234610bd2565b6040516102419190611f3c565b60405180910390f35b610264600480360381019061025f9190611b5a565b610bf6565b6040516102719190612094565b60405180910390f35b610294600480360381019061028f91906120b4565b610cca565b6040516102a6969594939291906120f2565b60405180910390f35b6102c960048036038101906102c49190611cc1565b610d1c565b6040516102d6919061229c565b60405180910390f35b6102f960048036038101906102f491906122bc565b610ff0565b005b6103036110da565b6040516103109190611ad6565b60405180910390f35b6103216110e0565b60405161032e9190611ad6565b60405180910390f35b610351600480360381019061034c9190611b5a565b6110ec565b60405161035e9190611ad6565b60405180910390f35b610381600480360381019061037c9190612316565b611101565b60405161038e9190612341565b60405180910390f35b6103b160048036038101906103ac9190611b5a565b6111a7565b6040516103be9190611ad6565b60405180910390f35b6103e160048036038101906103dc9190611b5a565b6111f0565b6040516103ee9190611f23565b60405180910390f35b610411600480360381019061040c9190612361565b61120d565b005b61041b611740565b6040516104289190611ad6565b60405180910390f35b61044b60048036038101906104469190611b5a565b611746565b6040516104589190611ad6565b60405180910390f35b61047b60048036038101906104769190611b5a565b61175b565b005b610485611840565b6040516104929190612341565b60405180910390f35b6104b560048036038101906104b09190611b5a565b6118cc565b6040516104c29190611f23565b60405180910390f35b60035481565b60015481565b5f5f9054906101000a900473ffffffffffffffffffffffffffffffffffffffff1673ffffffffffffffffffffffffffffffffffffffff163373ffffffffffffffffffffffffffffffffffffffff1614610565576040517f08c379a000000000000000000000000000000000000000000000000000000000815260040161055c906124b0565b60405180910390fd5b61056e8161191e565b50565b6009818051602081018201805184825260208301602085012081835280955050505050505f91509050805f0180546105a8906124fb565b80601f01602080910402602001604051908101604052809291908181526020018280546105d4906124fb565b801561061f5780601f106105f65761010080835404028352916020019161061f565b820191905f5260205f20905b81548152906001019060200180831161060257829003601f168201915b505050505090806001015f9054906101000a900473ffffffffffffffffffffffffffffffffffffffff1690806002015f9054906101000a900473ffffffffffffffffffffffffffffffffffffffff1690806003015490806004015490806005015490806006018054610690906124fb565b80601f01602080910402602001604051908101604052809291908181526020018280546106bc906124fb565b80156107075780601f106106de57610100808354040283529160200191610707565b820191905f5260205f20905b8154815290600101906020018083116106ea57829003601f168201915b50505050509080600701805461071c906124fb565b80601f0160208091040260200160405190810160405280929190818152602001828054610748906124fb565b80156107935780601f1061076a57610100808354040283529160200191610793565b820191905f5260205f20905b81548152906001019060200180831161077657829003601f168201915b505050505090806008015490806009015f9054906101000a900460ff1690508a565b5f5f9054906101000a900473ffffffffffffffffffffffffffffffffffffffff1673ffffffffffffffffffffffffffffffffffffffff163373ffffffffffffffffffffffffffffffffffffffff1614610843576040517f08c379a000000000000000000000000000000000000000000000000000000000815260040161083a906124b0565b60405180910390fd5b60075f8573ffffffffffffffffffffffffffffffffffffffff1673ffffffffffffffffffffffffffffffffffffffff1681526020019081526020015f205f81548092919061089090612558565b91905055508260085f8673ffffffffffffffffffffffffffffffffffffffff1673ffffffffffffffffffffffffffffffffffffffff1681526020019081526020015f20819055505f5f5f1b90505f60065f8773ffffffffffffffffffffffffffffffffffffffff1673ffffffffffffffffffffffffffffffffffffffff1681526020019081526020015f208054905090505f811115610a13575f60065f8873ffffffffffffffffffffffffffffffffffffffff1673ffffffffffffffffffffffffffffffffffffffff1681526020019081526020015f20600183610974919061259f565b81548110610985576109846125d2565b5b905f5260205f2090600602016040518060c00160405290815f8201548152602001600182015481526020016002820154815260200160038201548152602001600482015481526020016005820154815250509050805f0151816020015182608001516040516020016109f99392919061261f565b604051602081830303815290604052805190602001209250505b60065f8773ffffffffffffffffffffffffffffffffffffffff1673ffffffffffffffffffffffffffffffffffffffff1681526020019081526020015f206040518060c0016040528087815260200186815260200160075f8a73ffffffffffffffffffffffffffffffffffffffff1673ffffffffffffffffffffffffffffffffffffffff1681526020019081526020015f2054815260200185815260200142815260200184815250908060018154018082558091505060019003905f5260205f2090600602015f909190919091505f820151815f01556020820151816001015560408201518160020155606082015181600301556080820151816004015560a0820151816005015550508573ffffffffffffffffffffffffffffffffffffffff167f49665851c2c1601b5b00da6af7926daca0e07b35b4804bc3a13bee80c0891e2b868660075f8b73ffffffffffffffffffffffffffffffffffffffff1673ffffffffffffffffffffffffffffffffffffffff1681526020019081526020015f205442604051610ba5949392919061265b565b60405180910390a2505050505050565b5f81600354148015610bcb57505f5f1b60035414155b9050919050565b5f5f9054906101000a900473ffffffffffffffffffffffffffffffffffffffff1681565b606060065f8373ffffffffffffffffffffffffffffffffffffffff1673ffffffffffffffffffffffffffffffffffffffff1681526020019081526020015f20805480602002602001604051908101604052809291908181526020015f905b82821015610cbf578382905f5260205f2090600602016040518060c00160405290815f82015481526020016001820154815260200160028201548152602001600382015481526020016004820154815260200160058201548152505081526020019060010190610c54565b505050509050919050565b6006602052815f5260405f208181548110610ce3575f80fd5b905f5260205f2090600602015f9150915050805f0154908060010154908060020154908060030154908060040154908060050154905086565b610d24611a13565b600982604051610d3491906126d8565b9081526020016040518091039020604051806101400160405290815f82018054610d5d906124fb565b80601f0160208091040260200160405190810160405280929190818152602001828054610d89906124fb565b8015610dd45780601f10610dab57610100808354040283529160200191610dd4565b820191905f5260205f20905b815481529060010190602001808311610db757829003601f168201915b50505050508152602001600182015f9054906101000a900473ffffffffffffffffffffffffffffffffffffffff1673ffffffffffffffffffffffffffffffffffffffff1673ffffffffffffffffffffffffffffffffffffffff168152602001600282015f9054906101000a900473ffffffffffffffffffffffffffffffffffffffff1673ffffffffffffffffffffffffffffffffffffffff1673ffffffffffffffffffffffffffffffffffffffff168152602001600382015481526020016004820154815260200160058201548152602001600682018054610eb5906124fb565b80601f0160208091040260200160405190810160405280929190818152602001828054610ee1906124fb565b8015610f2c5780601f10610f0357610100808354040283529160200191610f2c565b820191905f5260205f20905b815481529060010190602001808311610f0f57829003601f168201915b50505050508152602001600782018054610f45906124fb565b80601f0160208091040260200160405190810160405280929190818152602001828054610f71906124fb565b8015610fbc5780601f10610f9357610100808354040283529160200191610fbc565b820191905f5260205f20905b815481529060010190602001808311610f9f57829003601f168201915b5050505050815260200160088201548152602001600982015f9054906101000a900460ff1615151515815250509050919050565b5f5f9054906101000a900473ffffffffffffffffffffffffffffffffffffffff1673ffffffffffffffffffffffffffffffffffffffff163373ffffffffffffffffffffffffffffffffffffffff161461107e576040517f08c379a0000000000000000000000000000000000000000000000000000000008152600401611075906124b0565b60405180910390fd5b8160038190555042600481905550806005908161109b919061288e565b50817f03b553b8a7d5b9f30ffabed24adc9e3ddf9ada50b08bc380b259646cd91a00c182426040516110ce92919061295d565b60405180910390a25050565b60025481565b5f600b80549050905090565b6008602052805f5260405f205f915090505481565b600b8181548110611110575f80fd5b905f5260205f20015f915090508054611128906124fb565b80601f0160208091040260200160405190810160405280929190818152602001828054611154906124fb565b801561119f5780601f106111765761010080835404028352916020019161119f565b820191905f5260205f20905b81548152906001019060200180831161118257829003601f168201915b505050505081565b5f60065f8373ffffffffffffffffffffffffffffffffffffffff1673ffffffffffffffffffffffffffffffffffffffff1681526020019081526020015f20805490509050919050565b600a602052805f5260405f205f915054906101000a900460ff1681565b5f5f9054906101000a900473ffffffffffffffffffffffffffffffffffffffff1673ffffffffffffffffffffffffffffffffffffffff163373ffffffffffffffffffffffffffffffffffffffff161461129b576040517f08c379a0000000000000000000000000000000000000000000000000000000008152600401611292906124b0565b60405180910390fd5b6009886040516112ab91906126d8565b90815260200160405180910390206009015f9054906101000a900460ff1615611309576040517f08c379a0000000000000000000000000000000000000000000000000000000008152600401611300906129d5565b60405180910390fd5b6040518061014001604052808981526020018873ffffffffffffffffffffffffffffffffffffffff1681526020018773ffffffffffffffffffffffffffffffffffffffff1681526020018681526020018581526020018481526020018381526020018281526020014281526020016001151581525060098960405161138e91906126d8565b90815260200160405180910390205f820151815f0190816113af919061288e565b506020820151816001015f6101000a81548173ffffffffffffffffffffffffffffffffffffffff021916908373ffffffffffffffffffffffffffffffffffffffff1602179055506040820151816002015f6101000a81548173ffffffffffffffffffffffffffffffffffffffff021916908373ffffffffffffffffffffffffffffffffffffffff160217905550606082015181600301556080820151816004015560a0820151816005015560c082015181600601908161146f919061288e565b5060e0820151816007019081611485919061288e565b506101008201518160080155610120820151816009015f6101000a81548160ff021916908315150217905550905050600b88908060018154018082558091505060019003905f5260205f20015f9091909190915090816114e5919061288e565b508673ffffffffffffffffffffffffffffffffffffffff168860405161150b91906126d8565b60405180910390207fbe0e3d4d311c35635aff04a96358abc5ca69971f736106593842fca3d202885f848488884260405161154a9594939291906129f3565b60405180910390a36040518060400160405280601381526020017f424c4f434b5f414e445f424c41434b4c49535400000000000000000000000000815250805190602001208180519060200120036115f4576115a58761191e565b8673ffffffffffffffffffffffffffffffffffffffff167fbaa83c8f3a01a46965a5dcb58df35f4508631bab278a7eedd2355cf651a6ea14426040516115eb9190612ac2565b60405180910390a25b6040518060400160405280600581526020017f424c4f434b000000000000000000000000000000000000000000000000000000815250805190602001208180519060200120148061168757506040518060400160405280601381526020017f424c4f434b5f414e445f424c41434b4c49535400000000000000000000000000815250805190602001208180519060200120145b806116d457506040518060400160405280600681526020017f465245455a450000000000000000000000000000000000000000000000000000815250805190602001208180519060200120145b1561172a578673ffffffffffffffffffffffffffffffffffffffff167fbaa83c8f3a01a46965a5dcb58df35f4508631bab278a7eedd2355cf651a6ea14824260405161172192919061295d565b60405180910390a25b611736878486886107b5565b5050505050505050565b60045481565b6007602052805f5260405f205f915090505481565b5f5f9054906101000a900473ffffffffffffffffffffffffffffffffffffffff1673ffffffffffffffffffffffffffffffffffffffff163373ffffffffffffffffffffffffffffffffffffffff16146117e9576040517f08c379a00000000000000000000000000000000000000000000000000000000081526004016117e0906124b0565b60405180910390fd5b5f600a5f8373ffffffffffffffffffffffffffffffffffffffff1673ffffffffffffffffffffffffffffffffffffffff1681526020019081526020015f205f6101000a81548160ff02191690831515021790555050565b6005805461184d906124fb565b80601f0160208091040260200160405190810160405280929190818152602001828054611879906124fb565b80156118c45780601f1061189b576101008083540402835291602001916118c4565b820191905f5260205f20905b8154815290600101906020018083116118a757829003601f168201915b505050505081565b5f600a5f8373ffffffffffffffffffffffffffffffffffffffff1673ffffffffffffffffffffffffffffffffffffffff1681526020019081526020015f205f9054906101000a900460ff169050919050565b600a5f8273ffffffffffffffffffffffffffffffffffffffff1673ffffffffffffffffffffffffffffffffffffffff1681526020019081526020015f205f9054906101000a900460ff16611a10576001600a5f8373ffffffffffffffffffffffffffffffffffffffff1673ffffffffffffffffffffffffffffffffffffffff1681526020019081526020015f205f6101000a81548160ff0219169083151502179055508073ffffffffffffffffffffffffffffffffffffffff167f8b77a7362ee4a5033b8ea6ed905f1454f7767befb6058dbba9e30ca53cc0d67742604051611a079190611ad6565b60405180910390a25b50565b604051806101400160405280606081526020015f73ffffffffffffffffffffffffffffffffffffffff1681526020015f73ffffffffffffffffffffffffffffffffffffffff1681526020015f81526020015f81526020015f815260200160608152602001606081526020015f81526020015f151581525090565b5f819050919050565b611a9f81611a8d565b82525050565b5f602082019050611ab85f830184611a96565b92915050565b5f819050919050565b611ad081611abe565b82525050565b5f602082019050611ae95f830184611ac7565b92915050565b5f604051905090565b5f5ffd5b5f5ffd5b5f73ffffffffffffffffffffffffffffffffffffffff82169050919050565b5f611b2982611b00565b9050919050565b611b3981611b1f565b8114611b43575f5ffd5b50565b5f81359050611b5481611b30565b92915050565b5f60208284031215611b6f57611b6e611af8565b5b5f611b7c84828501611b46565b91505092915050565b5f5ffd5b5f5ffd5b5f601f19601f8301169050919050565b7f4e487b71000000000000000000000000000000000000000000000000000000005f52604160045260245ffd5b611bd382611b8d565b810181811067ffffffffffffffff82111715611bf257611bf1611b9d565b5b80604052505050565b5f611c04611aef565b9050611c108282611bca565b919050565b5f67ffffffffffffffff821115611c2f57611c2e611b9d565b5b611c3882611b8d565b9050602081019050919050565b828183375f83830152505050565b5f611c65611c6084611c15565b611bfb565b905082815260208101848484011115611c8157611c80611b89565b5b611c8c848285611c45565b509392505050565b5f82601f830112611ca857611ca7611b85565b5b8135611cb8848260208601611c53565b91505092915050565b5f60208284031215611cd657611cd5611af8565b5b5f82013567ffffffffffffffff811115611cf357611cf2611afc565b5b611cff84828501611c94565b91505092915050565b5f81519050919050565b5f82825260208201905092915050565b8281835e5f83830152505050565b5f611d3a82611d08565b611d448185611d12565b9350611d54818560208601611d22565b611d5d81611b8d565b840191505092915050565b611d7181611b1f565b82525050565b5f8115159050919050565b611d8b81611d77565b82525050565b5f610140820190508181035f830152611daa818d611d30565b9050611db9602083018c611d68565b611dc6604083018b611d68565b611dd3606083018a611ac7565b611de06080830189611ac7565b611ded60a0830188611ac7565b81810360c0830152611dff8187611d30565b905081810360e0830152611e138186611d30565b9050611e23610100830185611ac7565b611e31610120830184611d82565b9b9a5050505050505050505050565b611e4981611abe565b8114611e53575f5ffd5b50565b5f81359050611e6481611e40565b92915050565b5f5f5f5f60808587031215611e8257611e81611af8565b5b5f611e8f87828801611b46565b9450506020611ea087828801611e56565b9350506040611eb187828801611e56565b9250506060611ec287828801611e56565b91505092959194509250565b611ed781611a8d565b8114611ee1575f5ffd5b50565b5f81359050611ef281611ece565b92915050565b5f60208284031215611f0d57611f0c611af8565b5b5f611f1a84828501611ee4565b91505092915050565b5f602082019050611f365f830184611d82565b92915050565b5f602082019050611f4f5f830184611d68565b92915050565b5f81519050919050565b5f82825260208201905092915050565b5f819050602082019050919050565b611f8781611abe565b82525050565b611f9681611a8d565b82525050565b60c082015f820151611fb05f850182611f7e565b506020820151611fc36020850182611f7e565b506040820151611fd66040850182611f7e565b506060820151611fe96060850182611f7e565b506080820151611ffc6080850182611f7e565b5060a082015161200f60a0850182611f8d565b50505050565b5f6120208383611f9c565b60c08301905092915050565b5f602082019050919050565b5f61204282611f55565b61204c8185611f5f565b935061205783611f6f565b805f5b8381101561208757815161206e8882612015565b97506120798361202c565b92505060018101905061205a565b5085935050505092915050565b5f6020820190508181035f8301526120ac8184612038565b905092915050565b5f5f604083850312156120ca576120c9611af8565b5b5f6120d785828601611b46565b92505060206120e885828601611e56565b9150509250929050565b5f60c0820190506121055f830189611ac7565b6121126020830188611ac7565b61211f6040830187611ac7565b61212c6060830186611ac7565b6121396080830185611ac7565b61214660a0830184611a96565b979650505050505050565b5f82825260208201905092915050565b5f61216b82611d08565b6121758185612151565b9350612185818560208601611d22565b61218e81611b8d565b840191505092915050565b6121a281611b1f565b82525050565b6121b181611d77565b82525050565b5f61014083015f8301518482035f8601526121d28282612161565b91505060208301516121e76020860182612199565b5060408301516121fa6040860182612199565b50606083015161220d6060860182611f7e565b5060808301516122206080860182611f7e565b5060a083015161223360a0860182611f7e565b5060c083015184820360c086015261224b8282612161565b91505060e083015184820360e08601526122658282612161565b91505061010083015161227c610100860182611f7e565b506101208301516122916101208601826121a8565b508091505092915050565b5f6020820190508181035f8301526122b481846121b7565b905092915050565b5f5f604083850312156122d2576122d1611af8565b5b5f6122df85828601611ee4565b925050602083013567ffffffffffffffff811115612300576122ff611afc565b5b61230c85828601611c94565b9150509250929050565b5f6020828403121561232b5761232a611af8565b5b5f61233884828501611e56565b91505092915050565b5f6020820190508181035f8301526123598184611d30565b905092915050565b5f5f5f5f5f5f5f5f610100898b03121561237e5761237d611af8565b5b5f89013567ffffffffffffffff81111561239b5761239a611afc565b5b6123a78b828c01611c94565b98505060206123b88b828c01611b46565b97505060406123c98b828c01611b46565b96505060606123da8b828c01611e56565b95505060806123eb8b828c01611e56565b94505060a06123fc8b828c01611e56565b93505060c089013567ffffffffffffffff81111561241d5761241c611afc565b5b6124298b828c01611c94565b92505060e089013567ffffffffffffffff81111561244a57612449611afc565b5b6124568b828c01611c94565b9150509295985092959890939650565b7f4e6f7420617574686f72697a65640000000000000000000000000000000000005f82015250565b5f61249a600e83611d12565b91506124a582612466565b602082019050919050565b5f6020820190508181035f8301526124c78161248e565b9050919050565b7f4e487b71000000000000000000000000000000000000000000000000000000005f52602260045260245ffd5b5f600282049050600182168061251257607f821691505b602082108103612525576125246124ce565b5b50919050565b7f4e487b71000000000000000000000000000000000000000000000000000000005f52601160045260245ffd5b5f61256282611abe565b91507fffffffffffffffffffffffffffffffffffffffffffffffffffffffffffffffff82036125945761259361252b565b5b600182019050919050565b5f6125a982611abe565b91506125b483611abe565b92508282039050818111156125cc576125cb61252b565b5b92915050565b7f4e487b71000000000000000000000000000000000000000000000000000000005f52603260045260245ffd5b5f819050919050565b61261961261482611abe565b6125ff565b82525050565b5f61262a8286612608565b60208201915061263a8285612608565b60208201915061264a8284612608565b602082019150819050949350505050565b5f60808201905061266e5f830187611ac7565b61267b6020830186611ac7565b6126886040830185611ac7565b6126956060830184611ac7565b95945050505050565b5f81905092915050565b5f6126b282611d08565b6126bc818561269e565b93506126cc818560208601611d22565b80840191505092915050565b5f6126e382846126a8565b915081905092915050565b5f819050815f5260205f209050919050565b5f6020601f8301049050919050565b5f82821b905092915050565b5f6008830261274a7fffffffffffffffffffffffffffffffffffffffffffffffffffffffffffffffff8261270f565b612754868361270f565b95508019841693508086168417925050509392505050565b5f819050919050565b5f61278f61278a61278584611abe565b61276c565b611abe565b9050919050565b5f819050919050565b6127a883612775565b6127bc6127b482612796565b84845461271b565b825550505050565b5f5f905090565b6127d36127c4565b6127de81848461279f565b505050565b5b81811015612801576127f65f826127cb565b6001810190506127e4565b5050565b601f82111561284657612817816126ee565b61282084612700565b8101602085101561282f578190505b61284361283b85612700565b8301826127e3565b50505b505050565b5f82821c905092915050565b5f6128665f198460080261284b565b1980831691505092915050565b5f61287e8383612857565b9150826002028217905092915050565b61289782611d08565b67ffffffffffffffff8111156128b0576128af611b9d565b5b6128ba82546124fb565b6128c5828285612805565b5f60209050601f8311600181146128f6575f84156128e4578287015190505b6128ee8582612873565b865550612955565b601f198416612904866126ee565b5f5b8281101561292b57848901518255600182019150602085019450602081019050612906565b868310156129485784890151612944601f891682612857565b8355505b6001600288020188555050505b505050505050565b5f6040820190508181035f8301526129758185611d30565b90506129846020830184611ac7565b9392505050565b7f416c7265616479206c6f676765640000000000000000000000000000000000005f82015250565b5f6129bf600e83611d12565b91506129ca8261298b565b602082019050919050565b5f6020820190508181035f8301526129ec816129b3565b9050919050565b5f60a0820190508181035f830152612a0b8188611d30565b90508181036020830152612a1f8187611d30565b9050612a2e6040830186611ac7565b612a3b6060830185611ac7565b612a486080830184611ac7565b9695505050505050565b7f4175746f2d626c61636b6c69737465643a20686967682066726175642073636f5f8201527f7265000000000000000000000000000000000000000000000000000000000000602082015250565b5f612aac602283611d12565b9150612ab782612a52565b604082019050919050565b5f6040820190508181035f830152612ad981612aa0565b9050612ae86020830184611ac7565b9291505056fea2646970667358221220d8e1774d521a21c8c4592463d1857202ae39607167fd71f746277ca76701558464736f6c634300081c0033","opcodes":"PUSH1 0x80 PUSH1 0x40 MSTORE PUSH9 0x168D28E3F00280000 PUSH1 0x1 SSTORE PUSH9 0x2B5E3AF16B1880000 PUSH1 0x2 SSTORE CALLVALUE DUP1 ISZERO PUSH1 0x28 JUMPI PUSH0 PUSH0 REVERT JUMPDEST POP CALLER PUSH0 PUSH0 PUSH2 0x100 EXP DUP2 SLOAD DUP2 PUSH20 0xFFFFFFFFFFFFFFFFFFFFFFFFFFFFFFFFFFFFFFFF MUL NOT AND SWAP1 DUP4 PUSH20 0xFFFFFFFFFFFFFFFFFFFFFFFFFFFFFFFFFFFFFFFF AND MUL OR SWAP1 SSTORE POP PUSH2 0x2B24 DUP1 PUSH2 0x75 PUSH0 CODECOPY PUSH0 RETURN INVALID PUSH1 0x80 PUSH1 0x40 MSTORE CALLVALUE DUP1 ISZERO PUSH2 0xF JUMPI PUSH0 PUSH0 REVERT JUMPDEST POP PUSH1 0x4 CALLDATASIZE LT PUSH2 0x14B JUMPI PUSH0 CALLDATALOAD PUSH1 0xE0 SHR DUP1 PUSH4 0xB0188A2C GT PUSH2 0xC1 JUMPI DUP1 PUSH4 0xE040708F GT PUSH2 0x7A JUMPI DUP1 PUSH4 0xE040708F EQ PUSH2 0x3F7 JUMPI DUP1 PUSH4 0xE840BE32 EQ PUSH2 0x413 JUMPI DUP1 PUSH4 0xE858A262 EQ PUSH2 0x431 JUMPI DUP1 PUSH4 0xEB91E651 EQ PUSH2 0x461 JUMPI DUP1 PUSH4 0xEDB3BA0B EQ PUSH2 0x47D JUMPI DUP1 PUSH4 0xFE575A87 EQ PUSH2 0x49B JUMPI PUSH2 0x14B JUMP JUMPDEST DUP1 PUSH4 0xB0188A2C EQ PUSH2 0x2FB JUMPI DUP1 PUSH4 0xB5C604FF EQ PUSH2 0x319 JUMPI DUP1 PUSH4 0xB663DB60 EQ PUSH2 0x337 JUMPI DUP1 PUSH4 0xBBD7BE31 EQ PUSH2 0x367 JUMPI DUP1 PUSH4 0xD05BF9CB EQ PUSH2 0x397 JUMPI DUP1 PUSH4 0xDBAC26E9 EQ PUSH2 0x3C7 JUMPI PUSH2 0x14B JUMP JUMPDEST DUP1 PUSH4 0x7549A936 GT PUSH2 0x113 JUMPI DUP1 PUSH4 0x7549A936 EQ PUSH2 0x1FC JUMPI DUP1 PUSH4 0x8DA5CB5B EQ PUSH2 0x22C JUMPI DUP1 PUSH4 0x9109D0D1 EQ PUSH2 0x24A JUMPI DUP1 PUSH4 0x92A1AB49 EQ PUSH2 0x27A JUMPI DUP1 PUSH4 0xAC2CCD07 EQ PUSH2 0x2AF JUMPI DUP1 PUSH4 0xAC48AE7E EQ PUSH2 0x2DF JUMPI PUSH2 0x14B JUMP JUMPDEST DUP1 PUSH4 0x1B2CCC09 EQ PUSH2 0x14F JUMPI DUP1 PUSH4 0x288314A6 EQ PUSH2 0x16D JUMPI DUP1 PUSH4 0x45071D68 EQ PUSH2 0x18B JUMPI DUP1 PUSH4 0x541E771D EQ PUSH2 0x1A7 JUMPI DUP1 PUSH4 0x609EFEB3 EQ PUSH2 0x1E0 JUMPI JUMPDEST PUSH0 PUSH0 REVERT JUMPDEST PUSH2 0x157 PUSH2 0x4CB JUMP JUMPDEST PUSH1 0x40 MLOAD PUSH2 0x164 SWAP2 SWAP1 PUSH2 0x1AA5 JUMP JUMPDEST PUSH1 0x40 MLOAD DUP1 SWAP2 SUB SWAP1 RETURN JUMPDEST PUSH2 0x175 PUSH2 0x4D1 JUMP JUMPDEST PUSH1 0x40 MLOAD PUSH2 0x182 SWAP2 SWAP1 PUSH2 0x1AD6 JUMP JUMPDEST PUSH1 0x40 MLOAD DUP1 SWAP2 SUB SWAP1 RETURN JUMPDEST PUSH2 0x1A5 PUSH1 0x4 DUP1 CALLDATASIZE SUB DUP2 ADD SWAP1 PUSH2 0x1A0 SWAP2 SWAP1 PUSH2 0x1B5A JUMP JUMPDEST PUSH2 0x4D7 JUMP JUMPDEST STOP JUMPDEST PUSH2 0x1C1 PUSH1 0x4 DUP1 CALLDATASIZE SUB DUP2 ADD SWAP1 PUSH2 0x1BC SWAP2 SWAP1 PUSH2 0x1CC1 JUMP JUMPDEST PUSH2 0x571 JUMP JUMPDEST PUSH1 0x40 MLOAD PUSH2 0x1D7 SWAP11 SWAP10 SWAP9 SWAP8 SWAP7 SWAP6 SWAP5 SWAP4 SWAP3 SWAP2 SWAP1 PUSH2 0x1D91 JUMP JUMPDEST PUSH1 0x40 MLOAD DUP1 SWAP2 SUB SWAP1 RETURN JUMPDEST PUSH2 0x1FA PUSH1 0x4 DUP1 CALLDATASIZE SUB DUP2 ADD SWAP1 PUSH2 0x1F5 SWAP2 SWAP1 PUSH2 0x1E6A JUMP JUMPDEST PUSH2 0x7B5 JUMP JUMPDEST STOP JUMPDEST PUSH2 0x216 PUSH1 0x4 DUP1 CALLDATASIZE SUB DUP2 ADD SWAP1 PUSH2 0x211 SWAP2 SWAP1 PUSH2 0x1EF8 JUMP JUMPDEST PUSH2 0xBB5 JUMP JUMPDEST PUSH1 0x40 MLOAD PUSH2 0x223 SWAP2 SWAP1 PUSH2 0x1F23 JUMP JUMPDEST PUSH1 0x40 MLOAD DUP1 SWAP2 SUB SWAP1 RETURN JUMPDEST PUSH2 0x234 PUSH2 0xBD2 JUMP JUMPDEST PUSH1 0x40 MLOAD PUSH2 0x241 SWAP2 SWAP1 PUSH2 0x1F3C JUMP JUMPDEST PUSH1 0x40 MLOAD DUP1 SWAP2 SUB SWAP1 RETURN JUMPDEST PUSH2 0x264 PUSH1 0x4 DUP1 CALLDATASIZE SUB DUP2 ADD SWAP1 PUSH2 0x25F SWAP2 SWAP1 PUSH2 0x1B5A JUMP JUMPDEST PUSH2 0xBF6 JUMP JUMPDEST PUSH1 0x40 MLOAD PUSH2 0x271 SWAP2 SWAP1 PUSH2 0x2094 JUMP JUMPDEST PUSH1 0x40 MLOAD DUP1 SWAP2 SUB SWAP1 RETURN JUMPDEST PUSH2 0x294 PUSH1 0x4 DUP1 CALLDATASIZE SUB DUP2 ADD SWAP1 PUSH2 0x28F SWAP2 SWAP1 PUSH2 0x20B4 JUMP JUMPDEST PUSH2 0xCCA JUMP JUMPDEST PUSH1 0x40 MLOAD PUSH2 0x2A6 SWAP7 SWAP6 SWAP5 SWAP4 SWAP3 SWAP2 SWAP1 PUSH2 0x20F2 JUMP JUMPDEST PUSH1 0x40 MLOAD DUP1 SWAP2 SUB SWAP1 RETURN JUMPDEST PUSH2 0x2C9 PUSH1 0x4 DUP1 CALLDATASIZE SUB DUP2 ADD SWAP1 PUSH2 0x2C4 SWAP2 SWAP1 PUSH2 0x1CC1 JUMP JUMPDEST PUSH2 0xD1C JUMP JUMPDEST PUSH1 0x40 MLOAD PUSH2 0x2D6 SWAP2 SWAP1 PUSH2 0x229C JUMP JUMPDEST PUSH1 0x40 MLOAD DUP1 SWAP2 SUB SWAP1 RETURN JUMPDEST PUSH2 0x2F9 PUSH1 0x4 DUP1 CALLDATASIZE SUB DUP2 ADD SWAP1 PUSH2 0x2F4 SWAP2 SWAP1 PUSH2 0x22BC JUMP JUMPDEST PUSH2 0xFF0 JUMP JUMPDEST STOP JUMPDEST PUSH2 0x303 PUSH2 0x10DA JUMP JUMPDEST PUSH1 0x40 MLOAD PUSH2 0x310 SWAP2 SWAP1 PUSH2 0x1AD6 JUMP JUMPDEST PUSH1 0x40 MLOAD DUP1 SWAP2 SUB SWAP1 RETURN JUMPDEST PUSH2 0x321 PUSH2 0x10E0 JUMP JUMPDEST PUSH1 0x40 MLOAD PUSH2 0x32E SWAP2 SWAP1 PUSH2 0x1AD6 JUMP JUMPDEST PUSH1 0x40 MLOAD DUP1 SWAP2 SUB SWAP1 RETURN JUMPDEST PUSH2 0x351 PUSH1 0x4 DUP1 CALLDATASIZE SUB DUP2 ADD SWAP1 PUSH2 0x34C SWAP2 SWAP1 PUSH2 0x1B5A JUMP JUMPDEST PUSH2 0x10EC JUMP JUMPDEST PUSH1 0x40 MLOAD PUSH2 0x35E SWAP2 SWAP1 PUSH2 0x1AD6 JUMP JUMPDEST PUSH1 0x40 MLOAD DUP1 SWAP2 SUB SWAP1 RETURN JUMPDEST PUSH2 0x381 PUSH1 0x4 DUP1 CALLDATASIZE SUB DUP2 ADD SWAP1 PUSH2 0x37C SWAP2 SWAP1 PUSH2 0x2316 JUMP JUMPDEST PUSH2 0x1101 JUMP JUMPDEST PUSH1 0x40 MLOAD PUSH2 0x38E SWAP2 SWAP1 PUSH2 0x2341 JUMP JUMPDEST PUSH1 0x40 MLOAD DUP1 SWAP2 SUB SWAP1 RETURN JUMPDEST PUSH2 0x3B1 PUSH1 0x4 DUP1 CALLDATASIZE SUB DUP2 ADD SWAP1 PUSH2 0x3AC SWAP2 SWAP1 PUSH2 0x1B5A JUMP JUMPDEST PUSH2 0x11A7 JUMP JUMPDEST PUSH1 0x40 MLOAD PUSH2 0x3BE SWAP2 SWAP1 PUSH2 0x1AD6 JUMP JUMPDEST PUSH1 0x40 MLOAD DUP1 SWAP2 SUB SWAP1 RETURN JUMPDEST PUSH2 0x3E1 PUSH1 0x4 DUP1 CALLDATASIZE SUB DUP2 ADD SWAP1 PUSH2 0x3DC SWAP2 SWAP1 PUSH2 0x1B5A JUMP JUMPDEST PUSH2 0x11F0 JUMP JUMPDEST PUSH1 0x40 MLOAD PUSH2 0x3EE SWAP2 SWAP1 PUSH2 0x1F23 JUMP JUMPDEST PUSH1 0x40 MLOAD DUP1 SWAP2 SUB SWAP1 RETURN JUMPDEST PUSH2 0x411 PUSH1 0x4 DUP1 CALLDATASIZE SUB DUP2 ADD SWAP1 PUSH2 0x40C SWAP2 SWAP1 PUSH2 0x2361 JUMP JUMPDEST PUSH2 0x120D JUMP JUMPDEST STOP JUMPDEST PUSH2 0x41B PUSH2 0x1740 JUMP JUMPDEST PUSH1 0x40 MLOAD PUSH2 0x428 SWAP2 SWAP1 PUSH2 0x1AD6 JUMP JUMPDEST PUSH1 0x40 MLOAD DUP1 SWAP2 SUB SWAP1 RETURN JUMPDEST PUSH2 0x44B PUSH1 0x4 DUP1 CALLDATASIZE SUB DUP2 ADD SWAP1 PUSH2 0x446 SWAP2 SWAP1 PUSH2 0x1B5A JUMP JUMPDEST PUSH2 0x1746 JUMP JUMPDEST PUSH1 0x40 MLOAD PUSH2 0x458 SWAP2 SWAP1 PUSH2 0x1AD6 JUMP JUMPDEST PUSH1 0x40 MLOAD DUP1 SWAP2 SUB SWAP1 RETURN JUMPDEST PUSH2 0x47B PUSH1 0x4 DUP1 CALLDATASIZE SUB DUP2 ADD SWAP1 PUSH2 0x476 SWAP2 SWAP1 PUSH2 0x1B5A JUMP JUMPDEST PUSH2 0x175B JUMP JUMPDEST STOP JUMPDEST PUSH2 0x485 PUSH2 0x1840 JUMP JUMPDEST PUSH1 0x40 MLOAD PUSH2 0x492 SWAP2 SWAP1 PUSH2 0x2341 JUMP JUMPDEST PUSH1 0x40 MLOAD DUP1 SWAP2 SUB SWAP1 RETURN JUMPDEST PUSH2 0x4B5 PUSH1 0x4 DUP1 CALLDATASIZE SUB DUP2 ADD SWAP1 PUSH2 0x4B0 SWAP2 SWAP1 PUSH2 0x1B5A JUMP JUMPDEST PUSH2 0x18CC JUMP JUMPDEST PUSH1 0x40 MLOAD PUSH2 0x4C2 SWAP2 SWAP1 PUSH2 0x1F23 JUMP JUMPDEST PUSH1 0x40 MLOAD DUP1 SWAP2 SUB SWAP1 RETURN JUMPDEST PUSH1 0x3 SLOAD DUP2 JUMP JUMPDEST PUSH1 0x1 SLOAD DUP2 JUMP JUMPDEST PUSH0 PUSH0 SWAP1 SLOAD SWAP1 PUSH2 0x100 EXP SWAP1 DIV PUSH20 0xFFFFFFFFFFFFFFFFFFFFFFFFFFFFFFFFFFFFFFFF AND PUSH20 0xFFFFFFFFFFFFFFFFFFFFFFFFFFFFFFFFFFFFFFFF AND CALLER PUSH20 0xFFFFFFFFFFFFFFFFFFFFFFFFFFFFFFFFFFFFFFFF AND EQ PUSH2 0x565 JUMPI PUSH1 0x40 MLOAD PUSH32 0x8C379A000000000000000000000000000000000000000000000000000000000 DUP2 MSTORE PUSH1 0x4 ADD PUSH2 0x55C SWAP1 PUSH2 0x24B0 JUMP JUMPDEST PUSH1 0x40 MLOAD DUP1 SWAP2 SUB SWAP1 REVERT JUMPDEST PUSH2 0x56E DUP2 PUSH2 0x191E JUMP JUMPDEST POP JUMP JUMPDEST PUSH1 0x9 DUP2 DUP1 MLOAD PUSH1 0x20 DUP2 ADD DUP3 ADD DUP1 MLOAD DUP5 DUP3 MSTORE PUSH1 0x20 DUP4 ADD PUSH1 0x20 DUP6 ADD KECCAK256 DUP2 DUP4 MSTORE DUP1 SWAP6 POP POP POP POP POP POP PUSH0 SWAP2 POP SWAP1 POP DUP1 PUSH0 ADD DUP1 SLOAD PUSH2 0x5A8 SWAP1 PUSH2 0x24FB JUMP JUMPDEST DUP1 PUSH1 0x1F ADD PUSH1 0x20 DUP1 SWAP2 DIV MUL PUSH1 0x20 ADD PUSH1 0x40 MLOAD SWAP1 DUP2 ADD PUSH1 0x40 MSTORE DUP1 SWAP3 SWAP2 SWAP1 DUP2 DUP2 MSTORE PUSH1 0x20 ADD DUP3 DUP1 SLOAD PUSH2 0x5D4 SWAP1 PUSH2 0x24FB JUMP JUMPDEST DUP1 ISZERO PUSH2 0x61F JUMPI DUP1 PUSH1 0x1F LT PUSH2 0x5F6 JUMPI PUSH2 0x100 DUP1 DUP4 SLOAD DIV MUL DUP4 MSTORE SWAP2 PUSH1 0x20 ADD SWAP2 PUSH2 0x61F JUMP JUMPDEST DUP3 ADD SWAP2 SWAP1 PUSH0 MSTORE PUSH1 0x20 PUSH0 KECCAK256 SWAP1 JUMPDEST DUP2 SLOAD DUP2 MSTORE SWAP1 PUSH1 0x1 ADD SWAP1 PUSH1 0x20 ADD DUP1 DUP4 GT PUSH2 0x602 JUMPI DUP3 SWAP1 SUB PUSH1 0x1F AND DUP3 ADD SWAP2 JUMPDEST POP POP POP POP POP SWAP1 DUP1 PUSH1 0x1 ADD PUSH0 SWAP1 SLOAD SWAP1 PUSH2 0x100 EXP SWAP1 DIV PUSH20 0xFFFFFFFFFFFFFFFFFFFFFFFFFFFFFFFFFFFFFFFF AND SWAP1 DUP1 PUSH1 0x2 ADD PUSH0 SWAP1 SLOAD SWAP1 PUSH2 0x100 EXP SWAP1 DIV PUSH20 0xFFFFFFFFFFFFFFFFFFFFFFFFFFFFFFFFFFFFFFFF AND SWAP1 DUP1 PUSH1 0x3 ADD SLOAD SWAP1 DUP1 PUSH1 0x4 ADD SLOAD SWAP1 DUP1 PUSH1 0x5 ADD SLOAD SWAP1 DUP1 PUSH1 0x6 ADD DUP1 SLOAD PUSH2 0x690 SWAP1 PUSH2 0x24FB JUMP JUMPDEST DUP1 PUSH1 0x1F ADD PUSH1 0x20 DUP1 SWAP2 DIV MUL PUSH1 0x20 ADD PUSH1 0x40 MLOAD SWAP1 DUP2 ADD PUSH1 0x40 MSTORE DUP1 SWAP3 SWAP2 SWAP1 DUP2 DUP2 MSTORE PUSH1 0x20 ADD DUP3 DUP1 SLOAD PUSH2 0x6BC SWAP1 PUSH2 0x24FB JUMP JUMPDEST DUP1 ISZERO PUSH2 0x707 JUMPI DUP1 PUSH1 0x1F LT PUSH2 0x6DE JUMPI PUSH2 0x100 DUP1 DUP4 SLOAD DIV MUL DUP4 MSTORE SWAP2 PUSH1 0x20 ADD SWAP2 PUSH2 0x707 JUMP JUMPDEST DUP3 ADD SWAP2 SWAP1 PUSH0 MSTORE PUSH1 0x20 PUSH0 KECCAK256 SWAP1 JUMPDEST DUP2 SLOAD DUP2 MSTORE SWAP1 PUSH1 0x1 ADD SWAP1 PUSH1 0x20 ADD DUP1 DUP4 GT PUSH2 0x6EA JUMPI DUP3 SWAP1 SUB PUSH1 0x1F AND DUP3 ADD SWAP2 JUMPDEST POP POP POP POP POP SWAP1 DUP1 PUSH1 0x7 ADD DUP1 SLOAD PUSH2 0x71C SWAP1 PUSH2 0x24FB JUMP JUMPDEST DUP1 PUSH1 0x1F ADD PUSH1 0x20 DUP1 SWAP2 DIV MUL PUSH1 0x20 ADD PUSH1 0x40 MLOAD SWAP1 DUP2 ADD PUSH1 0x40 MSTORE DUP1 SWAP3 SWAP2 SWAP1 DUP2 DUP2 MSTORE PUSH1 0x20 ADD DUP3 DUP1 SLOAD PUSH2 0x748 SWAP1 PUSH2 0x24FB JUMP JUMPDEST DUP1 ISZERO PUSH2 0x793 JUMPI DUP1 PUSH1 0x1F LT PUSH2 0x76A JUMPI PUSH2 0x100 DUP1 DUP4 SLOAD DIV MUL DUP4 MSTORE SWAP2 PUSH1 0x20 ADD SWAP2 PUSH2 0x793 JUMP JUMPDEST DUP3 ADD SWAP2 SWAP1 PUSH0 MSTORE PUSH1 0x20 PUSH0 KECCAK256 SWAP1 JUMPDEST DUP2 SLOAD DUP2 MSTORE SWAP1 PUSH1 0x1 ADD SWAP1 PUSH1 0x20 ADD DUP1 DUP4 GT PUSH2 0x776 JUMPI DUP3 SWAP1 SUB PUSH1 0x1F AND DUP3 ADD SWAP2 JUMPDEST POP POP POP POP POP SWAP1 DUP1 PUSH1 0x8 ADD SLOAD SWAP1 DUP1 PUSH1 0x9 ADD PUSH0 SWAP1 SLOAD SWAP1 PUSH2 0x100 EXP SWAP1 DIV PUSH1 0xFF AND SWAP1 POP DUP11 JUMP JUMPDEST PUSH0 PUSH0 SWAP1 SLOAD SWAP1 PUSH2 0x100 EXP SWAP1 DIV PUSH20 0xFFFFFFFFFFFFFFFFFFFFFFFFFFFFFFFFFFFFFFFF AND PUSH20 0xFFFFFFFFFFFFFFFFFFFFFFFFFFFFFFFFFFFFFFFF AND CALLER PUSH20 0xFFFFFFFFFFFFFFFFFFFFFFFFFFFFFFFFFFFFFFFF AND EQ PUSH2 0x843 JUMPI PUSH1 0x40 MLOAD PUSH32 0x8C379A000000000000000000000000000000000000000000000000000000000 DUP2 MSTORE PUSH1 0x4 ADD PUSH2 0x83A SWAP1 PUSH2 0x24B0 JUMP JUMPDEST PUSH1 0x40 MLOAD DUP1 SWAP2 SUB SWAP1 REVERT JUMPDEST PUSH1 0x7 PUSH0 DUP6 PUSH20 0xFFFFFFFFFFFFFFFFFFFFFFFFFFFFFFFFFFFFFFFF AND PUSH20 0xFFFFFFFFFFFFFFFFFFFFFFFFFFFFFFFFFFFFFFFF AND DUP2 MSTORE PUSH1 0x20 ADD SWAP1 DUP2 MSTORE PUSH1 0x20 ADD PUSH0 KECCAK256 PUSH0 DUP2 SLOAD DUP1 SWAP3 SWAP2 SWAP1 PUSH2 0x890 SWAP1 PUSH2 0x2558 JUMP JUMPDEST SWAP2 SWAP1 POP SSTORE POP DUP3 PUSH1 0x8 PUSH0 DUP7 PUSH20 0xFFFFFFFFFFFFFFFFFFFFFFFFFFFFFFFFFFFFFFFF AND PUSH20 0xFFFFFFFFFFFFFFFFFFFFFFFFFFFFFFFFFFFFFFFF AND DUP2 MSTORE PUSH1 0x20 ADD SWAP1 DUP2 MSTORE PUSH1 0x20 ADD PUSH0 KECCAK256 DUP2 SWAP1 SSTORE POP PUSH0 PUSH0 PUSH0 SHL SWAP1 POP PUSH0 PUSH1 0x6 PUSH0 DUP8 PUSH20 0xFFFFFFFFFFFFFFFFFFFFFFFFFFFFFFFFFFFFFFFF AND PUSH20 0xFFFFFFFFFFFFFFFFFFFFFFFFFFFFFFFFFFFFFFFF AND DUP2 MSTORE PUSH1 0x20 ADD SWAP1 DUP2 MSTORE PUSH1 0x20 ADD PUSH0 KECCAK256 DUP1 SLOAD SWAP1 POP SWAP1 POP PUSH0 DUP2 GT ISZERO PUSH2 0xA13 JUMPI PUSH0 PUSH1 0x6 PUSH0 DUP9 PUSH20 0xFFFFFFFFFFFFFFFFFFFFFFFFFFFFFFFFFFFFFFFF AND PUSH20 0xFFFFFFFFFFFFFFFFFFFFFFFFFFFFFFFFFFFFFFFF AND DUP2 MSTORE PUSH1 0x20 ADD SWAP1 DUP2 MSTORE PUSH1 0x20 ADD PUSH0 KECCAK256 PUSH1 0x1 DUP4 PUSH2 0x974 SWAP2 SWAP1 PUSH2 0x259F JUMP JUMPDEST DUP2 SLOAD DUP2 LT PUSH2 0x985 JUMPI PUSH2 0x984 PUSH2 0x25D2 JUMP JUMPDEST JUMPDEST SWAP1 PUSH0 MSTORE PUSH1 0x20 PUSH0 KECCAK256 SWAP1 PUSH1 0x6 MUL ADD PUSH1 0x40 MLOAD DUP1 PUSH1 0xC0 ADD PUSH1 0x40 MSTORE SWAP1 DUP2 PUSH0 DUP3 ADD SLOAD DUP2 MSTORE PUSH1 0x20 ADD PUSH1 0x1 DUP3 ADD SLOAD DUP2 MSTORE PUSH1 0x20 ADD PUSH1 0x2 DUP3 ADD SLOAD DUP2 MSTORE PUSH1 0x20 ADD PUSH1 0x3 DUP3 ADD SLOAD DUP2 MSTORE PUSH1 0x20 ADD PUSH1 0x4 DUP3 ADD SLOAD DUP2 MSTORE PUSH1 0x20 ADD PUSH1 0x5 DUP3 ADD SLOAD DUP2 MSTORE POP POP SWAP1 POP DUP1 PUSH0 ADD MLOAD DUP2 PUSH1 0x20 ADD MLOAD DUP3 PUSH1 0x80 ADD MLOAD PUSH1 0x40 MLOAD PUSH1 0x20 ADD PUSH2 0x9F9 SWAP4 SWAP3 SWAP2 SWAP1 PUSH2 0x261F JUMP JUMPDEST PUSH1 0x40 MLOAD PUSH1 0x20 DUP2 DUP4 SUB SUB DUP2 MSTORE SWAP1 PUSH1 0x40 MSTORE DUP1 MLOAD SWAP1 PUSH1 0x20 ADD KECCAK256 SWAP3 POP POP JUMPDEST PUSH1 0x6 PUSH0 DUP8 PUSH20 0xFFFFFFFFFFFFFFFFFFFFFFFFFFFFFFFFFFFFFFFF AND PUSH20 0xFFFFFFFFFFFFFFFFFFFFFFFFFFFFFFFFFFFFFFFF AND DUP2 MSTORE PUSH1 0x20 ADD SWAP1 DUP2 MSTORE PUSH1 0x20 ADD PUSH0 KECCAK256 PUSH1 0x40 MLOAD DUP1 PUSH1 0xC0 ADD PUSH1 0x40 MSTORE DUP1 DUP8 DUP2 MSTORE PUSH1 0x20 ADD DUP7 DUP2 MSTORE PUSH1 0x20 ADD PUSH1 0x7 PUSH0 DUP11 PUSH20 0xFFFFFFFFFFFFFFFFFFFFFFFFFFFFFFFFFFFFFFFF AND PUSH20 0xFFFFFFFFFFFFFFFFFFFFFFFFFFFFFFFFFFFFFFFF AND DUP2 MSTORE PUSH1 0x20 ADD SWAP1 DUP2 MSTORE PUSH1 0x20 ADD PUSH0 KECCAK256 SLOAD DUP2 MSTORE PUSH1 0x20 ADD DUP6 DUP2 MSTORE PUSH1 0x20 ADD TIMESTAMP DUP2 MSTORE PUSH1 0x20 ADD DUP5 DUP2 MSTORE POP SWAP1 DUP1 PUSH1 0x1 DUP2 SLOAD ADD DUP1 DUP3 SSTORE DUP1 SWAP2 POP POP PUSH1 0x1 SWAP1 SUB SWAP1 PUSH0 MSTORE PUSH1 0x20 PUSH0 KECCAK256 SWAP1 PUSH1 0x6 MUL ADD PUSH0 SWAP1 SWAP2 SWAP1 SWAP2 SWAP1 SWAP2 POP PUSH0 DUP3 ADD MLOAD DUP2 PUSH0 ADD SSTORE PUSH1 0x20 DUP3 ADD MLOAD DUP2 PUSH1 0x1 ADD SSTORE PUSH1 0x40 DUP3 ADD MLOAD DUP2 PUSH1 0x2 ADD SSTORE PUSH1 0x60 DUP3 ADD MLOAD DUP2 PUSH1 0x3 ADD SSTORE PUSH1 0x80 DUP3 ADD MLOAD DUP2 PUSH1 0x4 ADD SSTORE PUSH1 0xA0 DUP3 ADD MLOAD DUP2 PUSH1 0x5 ADD SSTORE POP POP DUP6 PUSH20 0xFFFFFFFFFFFFFFFFFFFFFFFFFFFFFFFFFFFFFFFF AND PUSH32 0x49665851C2C1601B5B00DA6AF7926DACA0E07B35B4804BC3A13BEE80C0891E2B DUP7 DUP7 PUSH1 0x7 PUSH0 DUP12 PUSH20 0xFFFFFFFFFFFFFFFFFFFFFFFFFFFFFFFFFFFFFFFF AND PUSH20 0xFFFFFFFFFFFFFFFFFFFFFFFFFFFFFFFFFFFFFFFF AND DUP2 MSTORE PUSH1 0x20 ADD SWAP1 DUP2 MSTORE PUSH1 0x20 ADD PUSH0 KECCAK256 SLOAD TIMESTAMP PUSH1 0x40 MLOAD PUSH2 0xBA5 SWAP5 SWAP4 SWAP3 SWAP2 SWAP1 PUSH2 0x265B JUMP JUMPDEST PUSH1 0x40 MLOAD DUP1 SWAP2 SUB SWAP1 LOG2 POP POP POP POP POP POP JUMP JUMPDEST PUSH0 DUP2 PUSH1 0x3 SLOAD EQ DUP1 ISZERO PUSH2 0xBCB JUMPI POP PUSH0 PUSH0 SHL PUSH1 0x3 SLOAD EQ ISZERO JUMPDEST SWAP1 POP SWAP2 SWAP1 POP JUMP JUMPDEST PUSH0 PUSH0 SWAP1 SLOAD SWAP1 PUSH2 0x100 EXP SWAP1 DIV PUSH20 0xFFFFFFFFFFFFFFFFFFFFFFFFFFFFFFFFFFFFFFFF AND DUP2 JUMP JUMPDEST PUSH1 0x60 PUSH1 0x6 PUSH0 DUP4 PUSH20 0xFFFFFFFFFFFFFFFFFFFFFFFFFFFFFFFFFFFFFFFF AND PUSH20 0xFFFFFFFFFFFFFFFFFFFFFFFFFFFFFFFFFFFFFFFF AND DUP2 MSTORE PUSH1 0x20 ADD SWAP1 DUP2 MSTORE PUSH1 0x20 ADD PUSH0 KECCAK256 DUP1 SLOAD DUP1 PUSH1 0x20 MUL PUSH1 0x20 ADD PUSH1 0x40 MLOAD SWAP1 DUP2 ADD PUSH1 0x40 MSTORE DUP1 SWAP3 SWAP2 SWAP1 DUP2 DUP2 MSTORE PUSH1 0x20 ADD PUSH0 SWAP1 JUMPDEST DUP3 DUP3 LT ISZERO PUSH2 0xCBF JUMPI DUP4 DUP3 SWAP1 PUSH0 MSTORE PUSH1 0x20 PUSH0 KECCAK256 SWAP1 PUSH1 0x6 MUL ADD PUSH1 0x40 MLOAD DUP1 PUSH1 0xC0 ADD PUSH1 0x40 MSTORE SWAP1 DUP2 PUSH0 DUP3 ADD SLOAD DUP2 MSTORE PUSH1 0x20 ADD PUSH1 0x1 DUP3 ADD SLOAD DUP2 MSTORE PUSH1 0x20 ADD PUSH1 0x2 DUP3 ADD SLOAD DUP2 MSTORE PUSH1 0x20 ADD PUSH1 0x3 DUP3 ADD SLOAD DUP2 MSTORE PUSH1 0x20 ADD PUSH1 0x4 DUP3 ADD SLOAD DUP2 MSTORE PUSH1 0x20 ADD PUSH1 0x5 DUP3 ADD SLOAD DUP2 MSTORE POP POP DUP2 MSTORE PUSH1 0x20 ADD SWAP1 PUSH1 0x1 ADD SWAP1 PUSH2 0xC54 JUMP JUMPDEST POP POP POP POP SWAP1 POP SWAP2 SWAP1 POP JUMP JUMPDEST PUSH1 0x6 PUSH1 0x20 MSTORE DUP2 PUSH0 MSTORE PUSH1 0x40 PUSH0 KECCAK256 DUP2 DUP2 SLOAD DUP2 LT PUSH2 0xCE3 JUMPI PUSH0 DUP1 REVERT JUMPDEST SWAP1 PUSH0 MSTORE PUSH1 0x20 PUSH0 KECCAK256 SWAP1 PUSH1 0x6 MUL ADD PUSH0 SWAP2 POP SWAP2 POP POP DUP1 PUSH0 ADD SLOAD SWAP1 DUP1 PUSH1 0x1 ADD SLOAD SWAP1 DUP1 PUSH1 0x2 ADD SLOAD SWAP1 DUP1 PUSH1 0x3 ADD SLOAD SWAP1 DUP1 PUSH1 0x4 ADD SLOAD SWAP1 DUP1 PUSH1 0x5 ADD SLOAD SWAP1 POP DUP7 JUMP JUMPDEST PUSH2 0xD24 PUSH2 0x1A13 JUMP JUMPDEST PUSH1 0x9 DUP3 PUSH1 0x40 MLOAD PUSH2 0xD34 SWAP2 SWAP1 PUSH2 0x26D8 JUMP JUMPDEST SWAP1 DUP2 MSTORE PUSH1 0x20 ADD PUSH1 0x40 MLOAD DUP1 SWAP2 SUB SWAP1 KECCAK256 PUSH1 0x40 MLOAD DUP1 PUSH2 0x140 ADD PUSH1 0x40 MSTORE SWAP1 DUP2 PUSH0 DUP3 ADD DUP1 SLOAD PUSH2 0xD5D SWAP1 PUSH2 0x24FB JUMP JUMPDEST DUP1 PUSH1 0x1F ADD PUSH1 0x20 DUP1 SWAP2 DIV MUL PUSH1 0x20 ADD PUSH1 0x40 MLOAD SWAP1 DUP2 ADD PUSH1 0x40 MSTORE DUP1 SWAP3 SWAP2 SWAP1 DUP2 DUP2 MSTORE PUSH1 0x20 ADD DUP3 DUP1 SLOAD PUSH2 0xD89 SWAP1 PUSH2 0x24FB JUMP JUMPDEST DUP1 ISZERO PUSH2 0xDD4 JUMPI DUP1 PUSH1 0x1F LT PUSH2 0xDAB JUMPI PUSH2 0x100 DUP1 DUP4 SLOAD DIV MUL DUP4 MSTORE SWAP2 PUSH1 0x20 ADD SWAP2 PUSH2 0xDD4 JUMP JUMPDEST DUP3 ADD SWAP2 SWAP1 PUSH0 MSTORE PUSH1 0x20 PUSH0 KECCAK256 SWAP1 JUMPDEST DUP2 SLOAD DUP2 MSTORE SWAP1 PUSH1 0x1 ADD SWAP1 PUSH1 0x20 ADD DUP1 DUP4 GT PUSH2 0xDB7 JUMPI DUP3 SWAP1 SUB PUSH1 0x1F AND DUP3 ADD SWAP2 JUMPDEST POP POP POP POP POP DUP2 MSTORE PUSH1 0x20 ADD PUSH1 0x1 DUP3 ADD PUSH0 SWAP1 SLOAD SWAP1 PUSH2 0x100 EXP SWAP1 DIV PUSH20 0xFFFFFFFFFFFFFFFFFFFFFFFFFFFFFFFFFFFFFFFF AND PUSH20 0xFFFFFFFFFFFFFFFFFFFFFFFFFFFFFFFFFFFFFFFF AND PUSH20 0xFFFFFFFFFFFFFFFFFFFFFFFFFFFFFFFFFFFFFFFF AND DUP2 MSTORE PUSH1 0x20 ADD PUSH1 0x2 DUP3 ADD PUSH0 SWAP1 SLOAD SWAP1 PUSH2 0x100 EXP SWAP1 DIV PUSH20 0xFFFFFFFFFFFFFFFFFFFFFFFFFFFFFFFFFFFFFFFF AND PUSH20 0xFFFFFFFFFFFFFFFFFFFFFFFFFFFFFFFFFFFFFFFF AND PUSH20 0xFFFFFFFFFFFFFFFFFFFFFFFFFFFFFFFFFFFFFFFF AND DUP2 MSTORE PUSH1 0x20 ADD PUSH1 0x3 DUP3 ADD SLOAD DUP2 MSTORE PUSH1 0x20 ADD PUSH1 0x4 DUP3 ADD SLOAD DUP2 MSTORE PUSH1 0x20 ADD PUSH1 0x5 DUP3 ADD SLOAD DUP2 MSTORE PUSH1 0x20 ADD PUSH1 0x6 DUP3 ADD DUP1 SLOAD PUSH2 0xEB5 SWAP1 PUSH2 0x24FB JUMP JUMPDEST DUP1 PUSH1 0x1F ADD PUSH1 0x20 DUP1 SWAP2 DIV MUL PUSH1 0x20 ADD PUSH1 0x40 MLOAD SWAP1 DUP2 ADD PUSH1 0x40 MSTORE DUP1 SWAP3 SWAP2 SWAP1 DUP2 DUP2 MSTORE PUSH1 0x20 ADD DUP3 DUP1 SLOAD PUSH2 0xEE1 SWAP1 PUSH2 0x24FB JUMP JUMPDEST DUP1 ISZERO PUSH2 0xF2C JUMPI DUP1 PUSH1 0x1F LT PUSH2 0xF03 JUMPI PUSH2 0x100 DUP1 DUP4 SLOAD DIV MUL DUP4 MSTORE SWAP2 PUSH1 0x20 ADD SWAP2 PUSH2 0xF2C JUMP JUMPDEST DUP3 ADD SWAP2 SWAP1 PUSH0 MSTORE PUSH1 0x20 PUSH0 KECCAK256 SWAP1 JUMPDEST DUP2 SLOAD DUP2 MSTORE SWAP1 PUSH1 0x1 ADD SWAP1 PUSH1 0x20 ADD DUP1 DUP4 GT PUSH2 0xF0F JUMPI DUP3 SWAP1 SUB PUSH1 0x1F AND DUP3 ADD SWAP2 JUMPDEST POP POP POP POP POP DUP2 MSTORE PUSH1 0x20 ADD PUSH1 0x7 DUP3 ADD DUP1 SLOAD PUSH2 0xF45 SWAP1 PUSH2 0x24FB JUMP JUMPDEST DUP1 PUSH1 0x1F ADD PUSH1 0x20 DUP1 SWAP2 DIV MUL PUSH1 0x20 ADD PUSH1 0x40 MLOAD SWAP1 DUP2 ADD PUSH1 0x40 MSTORE DUP1 SWAP3 SWAP2 SWAP1 DUP2 DUP2 MSTORE PUSH1 0x20 ADD DUP3 DUP1 SLOAD PUSH2 0xF71 SWAP1 PUSH2 0x24FB JUMP JUMPDEST DUP1 ISZERO PUSH2 0xFBC JUMPI DUP1 PUSH1 0x1F LT PUSH2 0xF93 JUMPI PUSH2 0x100 DUP1 DUP4 SLOAD DIV MUL DUP4 MSTORE SWAP2 PUSH1 0x20 ADD SWAP2 PUSH2 0xFBC JUMP JUMPDEST DUP3 ADD SWAP2 SWAP1 PUSH0 MSTORE PUSH1 0x20 PUSH0 KECCAK256 SWAP1 JUMPDEST DUP2 SLOAD DUP2 MSTORE SWAP1 PUSH1 0x1 ADD SWAP1 PUSH1 0x20 ADD DUP1 DUP4 GT PUSH2 0xF9F JUMPI DUP3 SWAP1 SUB PUSH1 0x1F AND DUP3 ADD SWAP2 JUMPDEST POP POP POP POP POP DUP2 MSTORE PUSH1 0x20 ADD PUSH1 0x8 DUP3 ADD SLOAD DUP2 MSTORE PUSH1 0x20 ADD PUSH1 0x9 DUP3 ADD PUSH0 SWAP1 SLOAD SWAP1 PUSH2 0x100 EXP SWAP1 DIV PUSH1 0xFF AND ISZERO ISZERO ISZERO ISZERO DUP2 MSTORE POP POP SWAP1 POP SWAP2 SWAP1 POP JUMP JUMPDEST PUSH0 PUSH0 SWAP1 SLOAD SWAP1 PUSH2 0x100 EXP SWAP1 DIV PUSH20 0xFFFFFFFFFFFFFFFFFFFFFFFFFFFFFFFFFFFFFFFF AND PUSH20 0xFFFFFFFFFFFFFFFFFFFFFFFFFFFFFFFFFFFFFFFF AND CALLER PUSH20 0xFFFFFFFFFFFFFFFFFFFFFFFFFFFFFFFFFFFFFFFF AND EQ PUSH2 0x107E JUMPI PUSH1 0x40 MLOAD PUSH32 0x8C379A000000000000000000000000000000000000000000000000000000000 DUP2 MSTORE PUSH1 0x4 ADD PUSH2 0x1075 SWAP1 PUSH2 0x24B0 JUMP JUMPDEST PUSH1 0x40 MLOAD DUP1 SWAP2 SUB SWAP1 REVERT JUMPDEST DUP2 PUSH1 0x3 DUP2 SWAP1 SSTORE POP TIMESTAMP PUSH1 0x4 DUP2 SWAP1 SSTORE POP DUP1 PUSH1 0x5 SWAP1 DUP2 PUSH2 0x109B SWAP2 SWAP1 PUSH2 0x288E JUMP JUMPDEST POP DUP2 PUSH32 0x3B553B8A7D5B9F30FFABED24ADC9E3DDF9ADA50B08BC380B259646CD91A00C1 DUP3 TIMESTAMP PUSH1 0x40 MLOAD PUSH2 0x10CE SWAP3 SWAP2 SWAP1 PUSH2 0x295D JUMP JUMPDEST PUSH1 0x40 MLOAD DUP1 SWAP2 SUB SWAP1 LOG2 POP POP JUMP JUMPDEST PUSH1 0x2 SLOAD DUP2 JUMP JUMPDEST PUSH0 PUSH1 0xB DUP1 SLOAD SWAP1 POP SWAP1 POP SWAP1 JUMP JUMPDEST PUSH1 0x8 PUSH1 0x20 MSTORE DUP1 PUSH0 MSTORE PUSH1 0x40 PUSH0 KECCAK256 PUSH0 SWAP2 POP SWAP1 POP SLOAD DUP2 JUMP JUMPDEST PUSH1 0xB DUP2 DUP2 SLOAD DUP2 LT PUSH2 0x1110 JUMPI PUSH0 DUP1 REVERT JUMPDEST SWAP1 PUSH0 MSTORE PUSH1 0x20 PUSH0 KECCAK256 ADD PUSH0 SWAP2 POP SWAP1 POP DUP1 SLOAD PUSH2 0x1128 SWAP1 PUSH2 0x24FB JUMP JUMPDEST DUP1 PUSH1 0x1F ADD PUSH1 0x20 DUP1 SWAP2 DIV MUL PUSH1 0x20 ADD PUSH1 0x40 MLOAD SWAP1 DUP2 ADD PUSH1 0x40 MSTORE DUP1 SWAP3 SWAP2 SWAP1 DUP2 DUP2 MSTORE PUSH1 0x20 ADD DUP3 DUP1 SLOAD PUSH2 0x1154 SWAP1 PUSH2 0x24FB JUMP JUMPDEST DUP1 ISZERO PUSH2 0x119F JUMPI DUP1 PUSH1 0x1F LT PUSH2 0x1176 JUMPI PUSH2 0x100 DUP1 DUP4 SLOAD DIV MUL DUP4 MSTORE SWAP2 PUSH1 0x20 ADD SWAP2 PUSH2 0x119F JUMP JUMPDEST DUP3 ADD SWAP2 SWAP1 PUSH0 MSTORE PUSH1 0x20 PUSH0 KECCAK256 SWAP1 JUMPDEST DUP2 SLOAD DUP2 MSTORE SWAP1 PUSH1 0x1 ADD SWAP1 PUSH1 0x20 ADD DUP1 DUP4 GT PUSH2 0x1182 JUMPI DUP3 SWAP1 SUB PUSH1 0x1F AND DUP3 ADD SWAP2 JUMPDEST POP POP POP POP POP DUP2 JUMP JUMPDEST PUSH0 PUSH1 0x6 PUSH0 DUP4 PUSH20 0xFFFFFFFFFFFFFFFFFFFFFFFFFFFFFFFFFFFFFFFF AND PUSH20 0xFFFFFFFFFFFFFFFFFFFFFFFFFFFFFFFFFFFFFFFF AND DUP2 MSTORE PUSH1 0x20 ADD SWAP1 DUP2 MSTORE PUSH1 0x20 ADD PUSH0 KECCAK256 DUP1 SLOAD SWAP1 POP SWAP1 POP SWAP2 SWAP1 POP JUMP JUMPDEST PUSH1 0xA PUSH1 0x20 MSTORE DUP1 PUSH0 MSTORE PUSH1 0x40 PUSH0 KECCAK256 PUSH0 SWAP2 POP SLOAD SWAP1 PUSH2 0x100 EXP SWAP1 DIV PUSH1 0xFF AND DUP2 JUMP JUMPDEST PUSH0 PUSH0 SWAP1 SLOAD SWAP1 PUSH2 0x100 EXP SWAP1 DIV PUSH20 0xFFFFFFFFFFFFFFFFFFFFFFFFFFFFFFFFFFFFFFFF AND PUSH20 0xFFFFFFFFFFFFFFFFFFFFFFFFFFFFFFFFFFFFFFFF AND CALLER PUSH20 0xFFFFFFFFFFFFFFFFFFFFFFFFFFFFFFFFFFFFFFFF AND EQ PUSH2 0x129B JUMPI PUSH1 0x40 MLOAD PUSH32 0x8C379A000000000000000000000000000000000000000000000000000000000 DUP2 MSTORE PUSH1 0x4 ADD PUSH2 0x1292 SWAP1 PUSH2 0x24B0 JUMP JUMPDEST PUSH1 0x40 MLOAD DUP1 SWAP2 SUB SWAP1 REVERT JUMPDEST PUSH1 0x9 DUP9 PUSH1 0x40 MLOAD PUSH2 0x12AB SWAP2 SWAP1 PUSH2 0x26D8 JUMP JUMPDEST SWAP1 DUP2 MSTORE PUSH1 0x20 ADD PUSH1 0x40 MLOAD DUP1 SWAP2 SUB SWAP1 KECCAK256 PUSH1 0x9 ADD PUSH0 SWAP1 SLOAD SWAP1 PUSH2 0x100 EXP SWAP1 DIV PUSH1 0xFF AND ISZERO PUSH2 0x1309 JUMPI PUSH1 0x40 MLOAD PUSH32 0x8C379A000000000000000000000000000000000000000000000000000000000 DUP2 MSTORE PUSH1 0x4 ADD PUSH2 0x1300 SWAP1 PUSH2 0x29D5 JUMP JUMPDEST PUSH1 0x40 MLOAD DUP1 SWAP2 SUB SWAP1 REVERT JUMPDEST PUSH1 0x40 MLOAD DUP1 PUSH2 0x140 ADD PUSH1 0x40 MSTORE DUP1 DUP10 DUP2 MSTORE PUSH1 0x20 ADD DUP9 PUSH20 0xFFFFFFFFFFFFFFFFFFFFFFFFFFFFFFFFFFFFFFFF AND DUP2 MSTORE PUSH1 0x20 ADD DUP8 PUSH20 0xFFFFFFFFFFFFFFFFFFFFFFFFFFFFFFFFFFFFFFFF AND DUP2 MSTORE PUSH1 0x20 ADD DUP7 DUP2 MSTORE PUSH1 0x20 ADD DUP6 DUP2 MSTORE PUSH1 0x20 ADD DUP5 DUP2 MSTORE PUSH1 0x20 ADD DUP4 DUP2 MSTORE PUSH1 0x20 ADD DUP3 DUP2 MSTORE PUSH1 0x20 ADD TIMESTAMP DUP2 MSTORE PUSH1 0x20 ADD PUSH1 0x1 ISZERO ISZERO DUP2 MSTORE POP PUSH1 0x9 DUP10 PUSH1 0x40 MLOAD PUSH2 0x138E SWAP2 SWAP1 PUSH2 0x26D8 JUMP JUMPDEST SWAP1 DUP2 MSTORE PUSH1 0x20 ADD PUSH1 0x40 MLOAD DUP1 SWAP2 SUB SWAP1 KECCAK256 PUSH0 DUP3 ADD MLOAD DUP2 PUSH0 ADD SWAP1 DUP2 PUSH2 0x13AF SWAP2 SWAP1 PUSH2 0x288E JUMP JUMPDEST POP PUSH1 0x20 DUP3 ADD MLOAD DUP2 PUSH1 0x1 ADD PUSH0 PUSH2 0x100 EXP DUP2 SLOAD DUP2 PUSH20 0xFFFFFFFFFFFFFFFFFFFFFFFFFFFFFFFFFFFFFFFF MUL NOT AND SWAP1 DUP4 PUSH20 0xFFFFFFFFFFFFFFFFFFFFFFFFFFFFFFFFFFFFFFFF AND MUL OR SWAP1 SSTORE POP PUSH1 0x40 DUP3 ADD MLOAD DUP2 PUSH1 0x2 ADD PUSH0 PUSH2 0x100 EXP DUP2 SLOAD DUP2 PUSH20 0xFFFFFFFFFFFFFFFFFFFFFFFFFFFFFFFFFFFFFFFF MUL NOT AND SWAP1 DUP4 PUSH20 0xFFFFFFFFFFFFFFFFFFFFFFFFFFFFFFFFFFFFFFFF AND MUL OR SWAP1 SSTORE POP PUSH1 0x60 DUP3 ADD MLOAD DUP2 PUSH1 0x3 ADD SSTORE PUSH1 0x80 DUP3 ADD MLOAD DUP2 PUSH1 0x4 ADD SSTORE PUSH1 0xA0 DUP3 ADD MLOAD DUP2 PUSH1 0x5 ADD SSTORE PUSH1 0xC0 DUP3 ADD MLOAD DUP2 PUSH1 0x6 ADD SWAP1 DUP2 PUSH2 0x146F SWAP2 SWAP1 PUSH2 0x288E JUMP JUMPDEST POP PUSH1 0xE0 DUP3 ADD MLOAD DUP2 PUSH1 0x7 ADD SWAP1 DUP2 PUSH2 0x1485 SWAP2 SWAP1 PUSH2 0x288E JUMP JUMPDEST POP PUSH2 0x100 DUP3 ADD MLOAD DUP2 PUSH1 0x8 ADD SSTORE PUSH2 0x120 DUP3 ADD MLOAD DUP2 PUSH1 0x9 ADD PUSH0 PUSH2 0x100 EXP DUP2 SLOAD DUP2 PUSH1 0xFF MUL NOT AND SWAP1 DUP4 ISZERO ISZERO MUL OR SWAP1 SSTORE POP SWAP1 POP POP PUSH1 0xB DUP9 SWAP1 DUP1 PUSH1 0x1 DUP2 SLOAD ADD DUP1 DUP3 SSTORE DUP1 SWAP2 POP POP PUSH1 0x1 SWAP1 SUB SWAP1 PUSH0 MSTORE PUSH1 0x20 PUSH0 KECCAK256 ADD PUSH0 SWAP1 SWAP2 SWAP1 SWAP2 SWAP1 SWAP2 POP SWAP1 DUP2 PUSH2 0x14E5 SWAP2 SWAP1 PUSH2 0x288E JUMP JUMPDEST POP DUP7 PUSH20 0xFFFFFFFFFFFFFFFFFFFFFFFFFFFFFFFFFFFFFFFF AND DUP9 PUSH1 0x40 MLOAD PUSH2 0x150B SWAP2 SWAP1 PUSH2 0x26D8 JUMP JUMPDEST PUSH1 0x40 MLOAD DUP1 SWAP2 SUB SWAP1 KECCAK256 PUSH32 0xBE0E3D4D311C35635AFF04A96358ABC5CA69971F736106593842FCA3D202885F DUP5 DUP5 DUP9 DUP9 TIMESTAMP PUSH1 0x40 MLOAD PUSH2 0x154A SWAP6 SWAP5 SWAP4 SWAP3 SWAP2 SWAP1 PUSH2 0x29F3 JUMP JUMPDEST PUSH1 0x40 MLOAD DUP1 SWAP2 SUB SWAP1 LOG3 PUSH1 0x40 MLOAD DUP1 PUSH1 0x40 ADD PUSH1 0x40 MSTORE DUP1 PUSH1 0x13 DUP2 MSTORE PUSH1 0x20 ADD PUSH32 0x424C4F434B5F414E445F424C41434B4C49535400000000000000000000000000 DUP2 MSTORE POP DUP1 MLOAD SWAP1 PUSH1 0x20 ADD KECCAK256 DUP2 DUP1 MLOAD SWAP1 PUSH1 0x20 ADD KECCAK256 SUB PUSH2 0x15F4 JUMPI PUSH2 0x15A5 DUP8 PUSH2 0x191E JUMP JUMPDEST DUP7 PUSH20 0xFFFFFFFFFFFFFFFFFFFFFFFFFFFFFFFFFFFFFFFF AND PUSH32 0xBAA83C8F3A01A46965A5DCB58DF35F4508631BAB278A7EEDD2355CF651A6EA14 TIMESTAMP PUSH1 0x40 MLOAD PUSH2 0x15EB SWAP2 SWAP1 PUSH2 0x2AC2 JUMP JUMPDEST PUSH1 0x40 MLOAD DUP1 SWAP2 SUB SWAP1 LOG2 JUMPDEST PUSH1 0x40 MLOAD DUP1 PUSH1 0x40 ADD PUSH1 0x40 MSTORE DUP1 PUSH1 0x5 DUP2 MSTORE PUSH1 0x20 ADD PUSH32 0x424C4F434B000000000000000000000000000000000000000000000000000000 DUP2 MSTORE POP DUP1 MLOAD SWAP1 PUSH1 0x20 ADD KECCAK256 DUP2 DUP1 MLOAD SWAP1 PUSH1 0x20 ADD KECCAK256 EQ DUP1 PUSH2 0x1687 JUMPI POP PUSH1 0x40 MLOAD DUP1 PUSH1 0x40 ADD PUSH1 0x40 MSTORE DUP1 PUSH1 0x13 DUP2 MSTORE PUSH1 0x20 ADD PUSH32 0x424C4F434B5F414E445F424C41434B4C49535400000000000000000000000000 DUP2 MSTORE POP DUP1 MLOAD SWAP1 PUSH1 0x20 ADD KECCAK256 DUP2 DUP1 MLOAD SWAP1 PUSH1 0x20 ADD KECCAK256 EQ JUMPDEST DUP1 PUSH2 0x16D4 JUMPI POP PUSH1 0x40 MLOAD DUP1 PUSH1 0x40 ADD PUSH1 0x40 MSTORE DUP1 PUSH1 0x6 DUP2 MSTORE PUSH1 0x20 ADD PUSH32 0x465245455A450000000000000000000000000000000000000000000000000000 DUP2 MSTORE POP DUP1 MLOAD SWAP1 PUSH1 0x20 ADD KECCAK256 DUP2 DUP1 MLOAD SWAP1 PUSH1 0x20 ADD KECCAK256 EQ JUMPDEST ISZERO PUSH2 0x172A JUMPI DUP7 PUSH20 0xFFFFFFFFFFFFFFFFFFFFFFFFFFFFFFFFFFFFFFFF AND PUSH32 0xBAA83C8F3A01A46965A5DCB58DF35F4508631BAB278A7EEDD2355CF651A6EA14 DUP3 TIMESTAMP PUSH1 0x40 MLOAD PUSH2 0x1721 SWAP3 SWAP2 SWAP1 PUSH2 0x295D JUMP JUMPDEST PUSH1 0x40 MLOAD DUP1 SWAP2 SUB SWAP1 LOG2 JUMPDEST PUSH2 0x1736 DUP8 DUP5 DUP7 DUP9 PUSH2 0x7B5 JUMP JUMPDEST POP POP POP POP POP POP POP POP JUMP JUMPDEST PUSH1 0x4 SLOAD DUP2 JUMP JUMPDEST PUSH1 0x7 PUSH1 0x20 MSTORE DUP1 PUSH0 MSTORE PUSH1 0x40 PUSH0 KECCAK256 PUSH0 SWAP2 POP SWAP1 POP SLOAD DUP2 JUMP JUMPDEST PUSH0 PUSH0 SWAP1 SLOAD SWAP1 PUSH2 0x100 EXP SWAP1 DIV PUSH20 0xFFFFFFFFFFFFFFFFFFFFFFFFFFFFFFFFFFFFFFFF AND PUSH20 0xFFFFFFFFFFFFFFFFFFFFFFFFFFFFFFFFFFFFFFFF AND CALLER PUSH20 0xFFFFFFFFFFFFFFFFFFFFFFFFFFFFFFFFFFFFFFFF AND EQ PUSH2 0x17E9 JUMPI PUSH1 0x40 MLOAD PUSH32 0x8C379A000000000000000000000000000000000000000000000000000000000 DUP2 MSTORE PUSH1 0x4 ADD PUSH2 0x17E0 SWAP1 PUSH2 0x24B0 JUMP JUMPDEST PUSH1 0x40 MLOAD DUP1 SWAP2 SUB SWAP1 REVERT JUMPDEST PUSH0 PUSH1 0xA PUSH0 DUP4 PUSH20 0xFFFFFFFFFFFFFFFFFFFFFFFFFFFFFFFFFFFFFFFF AND PUSH20 0xFFFFFFFFFFFFFFFFFFFFFFFFFFFFFFFFFFFFFFFF AND DUP2 MSTORE PUSH1 0x20 ADD SWAP1 DUP2 MSTORE PUSH1 0x20 ADD PUSH0 KECCAK256 PUSH0 PUSH2 0x100 EXP DUP2 SLOAD DUP2 PUSH1 0xFF MUL NOT AND SWAP1 DUP4 ISZERO ISZERO MUL OR SWAP1 SSTORE POP POP JUMP JUMPDEST PUSH1 0x5 DUP1 SLOAD PUSH2 0x184D SWAP1 PUSH2 0x24FB JUMP JUMPDEST DUP1 PUSH1 0x1F ADD PUSH1 0x20 DUP1 SWAP2 DIV MUL PUSH1 0x20 ADD PUSH1 0x40 MLOAD SWAP1 DUP2 ADD PUSH1 0x40 MSTORE DUP1 SWAP3 SWAP2 SWAP1 DUP2 DUP2 MSTORE PUSH1 0x20 ADD DUP3 DUP1 SLOAD PUSH2 0x1879 SWAP1 PUSH2 0x24FB JUMP JUMPDEST DUP1 ISZERO PUSH2 0x18C4 JUMPI DUP1 PUSH1 0x1F LT PUSH2 0x189B JUMPI PUSH2 0x100 DUP1 DUP4 SLOAD DIV MUL DUP4 MSTORE SWAP2 PUSH1 0x20 ADD SWAP2 PUSH2 0x18C4 JUMP JUMPDEST DUP3 ADD SWAP2 SWAP1 PUSH0 MSTORE PUSH1 0x20 PUSH0 KECCAK256 SWAP1 JUMPDEST DUP2 SLOAD DUP2 MSTORE SWAP1 PUSH1 0x1 ADD SWAP1 PUSH1 0x20 ADD DUP1 DUP4 GT PUSH2 0x18A7 JUMPI DUP3 SWAP1 SUB PUSH1 0x1F AND DUP3 ADD SWAP2 JUMPDEST POP POP POP POP POP DUP2 JUMP JUMPDEST PUSH0 PUSH1 0xA PUSH0 DUP4 PUSH20 0xFFFFFFFFFFFFFFFFFFFFFFFFFFFFFFFFFFFFFFFF AND PUSH20 0xFFFFFFFFFFFFFFFFFFFFFFFFFFFFFFFFFFFFFFFF AND DUP2 MSTORE PUSH1 0x20 ADD SWAP1 DUP2 MSTORE PUSH1 0x20 ADD PUSH0 KECCAK256 PUSH0 SWAP1 SLOAD SWAP1 PUSH2 0x100 EXP SWAP1 DIV PUSH1 0xFF AND SWAP1 POP SWAP2 SWAP1 POP JUMP JUMPDEST PUSH1 0xA PUSH0 DUP3 PUSH20 0xFFFFFFFFFFFFFFFFFFFFFFFFFFFFFFFFFFFFFFFF AND PUSH20 0xFFFFFFFFFFFFFFFFFFFFFFFFFFFFFFFFFFFFFFFF AND DUP2 MSTORE PUSH1 0x20 ADD SWAP1 DUP2 MSTORE PUSH1 0x20 ADD PUSH0 KECCAK256 PUSH0 SWAP1 SLOAD SWAP1 PUSH2 0x100 EXP SWAP1 DIV PUSH1 0xFF AND PUSH2 0x1A10 JUMPI PUSH1 0x1 PUSH1 0xA PUSH0 DUP4 PUSH20 0xFFFFFFFFFFFFFFFFFFFFFFFFFFFFFFFFFFFFFFFF AND PUSH20 0xFFFFFFFFFFFFFFFFFFFFFFFFFFFFFFFFFFFFFFFF AND DUP2 MSTORE PUSH1 0x20 ADD SWAP1 DUP2 MSTORE PUSH1 0x20 ADD PUSH0 KECCAK256 PUSH0 PUSH2 0x100 EXP DUP2 SLOAD DUP2 PUSH1 0xFF MUL NOT AND SWAP1 DUP4 ISZERO ISZERO MUL OR SWAP1 SSTORE POP DUP1 PUSH20 0xFFFFFFFFFFFFFFFFFFFFFFFFFFFFFFFFFFFFFFFF AND PUSH32 0x8B77A7362EE4A5033B8EA6ED905F1454F7767BEFB6058DBBA9E30CA53CC0D677 TIMESTAMP PUSH1 0x40 MLOAD PUSH2 0x1A07 SWAP2 SWAP1 PUSH2 0x1AD6 JUMP JUMPDEST PUSH1 0x40 MLOAD DUP1 SWAP2 SUB SWAP1 LOG2 JUMPDEST POP JUMP JUMPDEST PUSH1 0x40 MLOAD DUP1 PUSH2 0x140 ADD PUSH1 0x40 MSTORE DUP1 PUSH1 0x60 DUP2 MSTORE PUSH1 0x20 ADD PUSH0 PUSH20 0xFFFFFFFFFFFFFFFFFFFFFFFFFFFFFFFFFFFFFFFF AND DUP2 MSTORE PUSH1 0x20 ADD PUSH0 PUSH20 0xFFFFFFFFFFFFFFFFFFFFFFFFFFFFFFFFFFFFFFFF AND DUP2 MSTORE PUSH1 0x20 ADD PUSH0 DUP2 MSTORE PUSH1 0x20 ADD PUSH0 DUP2 MSTORE PUSH1 0x20 ADD PUSH0 DUP2 MSTORE PUSH1 0x20 ADD PUSH1 0x60 DUP2 MSTORE PUSH1 0x20 ADD PUSH1 0x60 DUP2 MSTORE PUSH1 0x20 ADD PUSH0 DUP2 MSTORE PUSH1 0x20 ADD PUSH0 ISZERO ISZERO DUP2 MSTORE POP SWAP1 JUMP JUMPDEST PUSH0 DUP2 SWAP1 POP SWAP2 SWAP1 POP JUMP JUMPDEST PUSH2 0x1A9F DUP2 PUSH2 0x1A8D JUMP JUMPDEST DUP3 MSTORE POP POP JUMP JUMPDEST PUSH0 PUSH1 0x20 DUP3 ADD SWAP1 POP PUSH2 0x1AB8 PUSH0 DUP4 ADD DUP5 PUSH2 0x1A96 JUMP JUMPDEST SWAP3 SWAP2 POP POP JUMP JUMPDEST PUSH0 DUP2 SWAP1 POP SWAP2 SWAP1 POP JUMP JUMPDEST PUSH2 0x1AD0 DUP2 PUSH2 0x1ABE JUMP JUMPDEST DUP3 MSTORE POP POP JUMP JUMPDEST PUSH0 PUSH1 0x20 DUP3 ADD SWAP1 POP PUSH2 0x1AE9 PUSH0 DUP4 ADD DUP5 PUSH2 0x1AC7 JUMP JUMPDEST SWAP3 SWAP2 POP POP JUMP JUMPDEST PUSH0 PUSH1 0x40 MLOAD SWAP1 POP SWAP1 JUMP JUMPDEST PUSH0 PUSH0 REVERT JUMPDEST PUSH0 PUSH0 REVERT JUMPDEST PUSH0 PUSH20 0xFFFFFFFFFFFFFFFFFFFFFFFFFFFFFFFFFFFFFFFF DUP3 AND SWAP1 POP SWAP2 SWAP1 POP JUMP JUMPDEST PUSH0 PUSH2 0x1B29 DUP3 PUSH2 0x1B00 JUMP JUMPDEST SWAP1 POP SWAP2 SWAP1 POP JUMP JUMPDEST PUSH2 0x1B39 DUP2 PUSH2 0x1B1F JUMP JUMPDEST DUP2 EQ PUSH2 0x1B43 JUMPI PUSH0 PUSH0 REVERT JUMPDEST POP JUMP JUMPDEST PUSH0 DUP2 CALLDATALOAD SWAP1 POP PUSH2 0x1B54 DUP2 PUSH2 0x1B30 JUMP JUMPDEST SWAP3 SWAP2 POP POP JUMP JUMPDEST PUSH0 PUSH1 0x20 DUP3 DUP5 SUB SLT ISZERO PUSH2 0x1B6F JUMPI PUSH2 0x1B6E PUSH2 0x1AF8 JUMP JUMPDEST JUMPDEST PUSH0 PUSH2 0x1B7C DUP5 DUP3 DUP6 ADD PUSH2 0x1B46 JUMP JUMPDEST SWAP2 POP POP SWAP3 SWAP2 POP POP JUMP JUMPDEST PUSH0 PUSH0 REVERT JUMPDEST PUSH0 PUSH0 REVERT JUMPDEST PUSH0 PUSH1 0x1F NOT PUSH1 0x1F DUP4 ADD AND SWAP1 POP SWAP2 SWAP1 POP JUMP JUMPDEST PUSH32 0x4E487B7100000000000000000000000000000000000000000000000000000000 PUSH0 MSTORE PUSH1 0x41 PUSH1 0x4 MSTORE PUSH1 0x24 PUSH0 REVERT JUMPDEST PUSH2 0x1BD3 DUP3 PUSH2 0x1B8D JUMP JUMPDEST DUP2 ADD DUP2 DUP2 LT PUSH8 0xFFFFFFFFFFFFFFFF DUP3 GT OR ISZERO PUSH2 0x1BF2 JUMPI PUSH2 0x1BF1 PUSH2 0x1B9D JUMP JUMPDEST JUMPDEST DUP1 PUSH1 0x40 MSTORE POP POP POP JUMP JUMPDEST PUSH0 PUSH2 0x1C04 PUSH2 0x1AEF JUMP JUMPDEST SWAP1 POP PUSH2 0x1C10 DUP3 DUP3 PUSH2 0x1BCA JUMP JUMPDEST SWAP2 SWAP1 POP JUMP JUMPDEST PUSH0 PUSH8 0xFFFFFFFFFFFFFFFF DUP3 GT ISZERO PUSH2 0x1C2F JUMPI PUSH2 0x1C2E PUSH2 0x1B9D JUMP JUMPDEST JUMPDEST PUSH2 0x1C38 DUP3 PUSH2 0x1B8D JUMP JUMPDEST SWAP1 POP PUSH1 0x20 DUP2 ADD SWAP1 POP SWAP2 SWAP1 POP JUMP JUMPDEST DUP3 DUP2 DUP4 CALLDATACOPY PUSH0 DUP4 DUP4 ADD MSTORE POP POP POP JUMP JUMPDEST PUSH0 PUSH2 0x1C65 PUSH2 0x1C60 DUP5 PUSH2 0x1C15 JUMP JUMPDEST PUSH2 0x1BFB JUMP JUMPDEST SWAP1 POP DUP3 DUP2 MSTORE PUSH1 0x20 DUP2 ADD DUP5 DUP5 DUP5 ADD GT ISZERO PUSH2 0x1C81 JUMPI PUSH2 0x1C80 PUSH2 0x1B89 JUMP JUMPDEST JUMPDEST PUSH2 0x1C8C DUP5 DUP3 DUP6 PUSH2 0x1C45 JUMP JUMPDEST POP SWAP4 SWAP3 POP POP POP JUMP JUMPDEST PUSH0 DUP3 PUSH1 0x1F DUP4 ADD SLT PUSH2 0x1CA8 JUMPI PUSH2 0x1CA7 PUSH2 0x1B85 JUMP JUMPDEST JUMPDEST DUP2 CALLDATALOAD PUSH2 0x1CB8 DUP5 DUP3 PUSH1 0x20 DUP7 ADD PUSH2 0x1C53 JUMP JUMPDEST SWAP2 POP POP SWAP3 SWAP2 POP POP JUMP JUMPDEST PUSH0 PUSH1 0x20 DUP3 DUP5 SUB SLT ISZERO PUSH2 0x1CD6 JUMPI PUSH2 0x1CD5 PUSH2 0x1AF8 JUMP JUMPDEST JUMPDEST PUSH0 DUP3 ADD CALLDATALOAD PUSH8 0xFFFFFFFFFFFFFFFF DUP2 GT ISZERO PUSH2 0x1CF3 JUMPI PUSH2 0x1CF2 PUSH2 0x1AFC JUMP JUMPDEST JUMPDEST PUSH2 0x1CFF DUP5 DUP3 DUP6 ADD PUSH2 0x1C94 JUMP JUMPDEST SWAP2 POP POP SWAP3 SWAP2 POP POP JUMP JUMPDEST PUSH0 DUP2 MLOAD SWAP1 POP SWAP2 SWAP1 POP JUMP JUMPDEST PUSH0 DUP3 DUP3 MSTORE PUSH1 0x20 DUP3 ADD SWAP1 POP SWAP3 SWAP2 POP POP JUMP JUMPDEST DUP3 DUP2 DUP4 MCOPY PUSH0 DUP4 DUP4 ADD MSTORE POP POP POP JUMP JUMPDEST PUSH0 PUSH2 0x1D3A DUP3 PUSH2 0x1D08 JUMP JUMPDEST PUSH2 0x1D44 DUP2 DUP6 PUSH2 0x1D12 JUMP JUMPDEST SWAP4 POP PUSH2 0x1D54 DUP2 DUP6 PUSH1 0x20 DUP7 ADD PUSH2 0x1D22 JUMP JUMPDEST PUSH2 0x1D5D DUP2 PUSH2 0x1B8D JUMP JUMPDEST DUP5 ADD SWAP2 POP POP SWAP3 SWAP2 POP POP JUMP JUMPDEST PUSH2 0x1D71 DUP2 PUSH2 0x1B1F JUMP JUMPDEST DUP3 MSTORE POP POP JUMP JUMPDEST PUSH0 DUP2 ISZERO ISZERO SWAP1 POP SWAP2 SWAP1 POP JUMP JUMPDEST PUSH2 0x1D8B DUP2 PUSH2 0x1D77 JUMP JUMPDEST DUP3 MSTORE POP POP JUMP JUMPDEST PUSH0 PUSH2 0x140 DUP3 ADD SWAP1 POP DUP2 DUP2 SUB PUSH0 DUP4 ADD MSTORE PUSH2 0x1DAA DUP2 DUP14 PUSH2 0x1D30 JUMP JUMPDEST SWAP1 POP PUSH2 0x1DB9 PUSH1 0x20 DUP4 ADD DUP13 PUSH2 0x1D68 JUMP JUMPDEST PUSH2 0x1DC6 PUSH1 0x40 DUP4 ADD DUP12 PUSH2 0x1D68 JUMP JUMPDEST PUSH2 0x1DD3 PUSH1 0x60 DUP4 ADD DUP11 PUSH2 0x1AC7 JUMP JUMPDEST PUSH2 0x1DE0 PUSH1 0x80 DUP4 ADD DUP10 PUSH2 0x1AC7 JUMP JUMPDEST PUSH2 0x1DED PUSH1 0xA0 DUP4 ADD DUP9 PUSH2 0x1AC7 JUMP JUMPDEST DUP2 DUP2 SUB PUSH1 0xC0 DUP4 ADD MSTORE PUSH2 0x1DFF DUP2 DUP8 PUSH2 0x1D30 JUMP JUMPDEST SWAP1 POP DUP2 DUP2 SUB PUSH1 0xE0 DUP4 ADD MSTORE PUSH2 0x1E13 DUP2 DUP7 PUSH2 0x1D30 JUMP JUMPDEST SWAP1 POP PUSH2 0x1E23 PUSH2 0x100 DUP4 ADD DUP6 PUSH2 0x1AC7 JUMP JUMPDEST PUSH2 0x1E31 PUSH2 0x120 DUP4 ADD DUP5 PUSH2 0x1D82 JUMP JUMPDEST SWAP12 SWAP11 POP POP POP POP POP POP POP POP POP POP POP JUMP JUMPDEST PUSH2 0x1E49 DUP2 PUSH2 0x1ABE JUMP JUMPDEST DUP2 EQ PUSH2 0x1E53 JUMPI PUSH0 PUSH0 REVERT JUMPDEST POP JUMP JUMPDEST PUSH0 DUP2 CALLDATALOAD SWAP1 POP PUSH2 0x1E64 DUP2 PUSH2 0x1E40 JUMP JUMPDEST SWAP3 SWAP2 POP POP JUMP JUMPDEST PUSH0 PUSH0 PUSH0 PUSH0 PUSH1 0x80 DUP6 DUP8 SUB SLT ISZERO PUSH2 0x1E82 JUMPI PUSH2 0x1E81 PUSH2 0x1AF8 JUMP JUMPDEST JUMPDEST PUSH0 PUSH2 0x1E8F DUP8 DUP3 DUP9 ADD PUSH2 0x1B46 JUMP JUMPDEST SWAP5 POP POP PUSH1 0x20 PUSH2 0x1EA0 DUP8 DUP3 DUP9 ADD PUSH2 0x1E56 JUMP JUMPDEST SWAP4 POP POP PUSH1 0x40 PUSH2 0x1EB1 DUP8 DUP3 DUP9 ADD PUSH2 0x1E56 JUMP JUMPDEST SWAP3 POP POP PUSH1 0x60 PUSH2 0x1EC2 DUP8 DUP3 DUP9 ADD PUSH2 0x1E56 JUMP JUMPDEST SWAP2 POP POP SWAP3 SWAP6 SWAP2 SWAP5 POP SWAP3 POP JUMP JUMPDEST PUSH2 0x1ED7 DUP2 PUSH2 0x1A8D JUMP JUMPDEST DUP2 EQ PUSH2 0x1EE1 JUMPI PUSH0 PUSH0 REVERT JUMPDEST POP JUMP JUMPDEST PUSH0 DUP2 CALLDATALOAD SWAP1 POP PUSH2 0x1EF2 DUP2 PUSH2 0x1ECE JUMP JUMPDEST SWAP3 SWAP2 POP POP JUMP JUMPDEST PUSH0 PUSH1 0x20 DUP3 DUP5 SUB SLT ISZERO PUSH2 0x1F0D JUMPI PUSH2 0x1F0C PUSH2 0x1AF8 JUMP JUMPDEST JUMPDEST PUSH0 PUSH2 0x1F1A DUP5 DUP3 DUP6 ADD PUSH2 0x1EE4 JUMP JUMPDEST SWAP2 POP POP SWAP3 SWAP2 POP POP JUMP JUMPDEST PUSH0 PUSH1 0x20 DUP3 ADD SWAP1 POP PUSH2 0x1F36 PUSH0 DUP4 ADD DUP5 PUSH2 0x1D82 JUMP JUMPDEST SWAP3 SWAP2 POP POP JUMP JUMPDEST PUSH0 PUSH1 0x20 DUP3 ADD SWAP1 POP PUSH2 0x1F4F PUSH0 DUP4 ADD DUP5 PUSH2 0x1D68 JUMP JUMPDEST SWAP3 SWAP2 POP POP JUMP JUMPDEST PUSH0 DUP2 MLOAD SWAP1 POP SWAP2 SWAP1 POP JUMP JUMPDEST PUSH0 DUP3 DUP3 MSTORE PUSH1 0x20 DUP3 ADD SWAP1 POP SWAP3 SWAP2 POP POP JUMP JUMPDEST PUSH0 DUP2 SWAP1 POP PUSH1 0x20 DUP3 ADD SWAP1 POP SWAP2 SWAP1 POP JUMP JUMPDEST PUSH2 0x1F87 DUP2 PUSH2 0x1ABE JUMP JUMPDEST DUP3 MSTORE POP POP JUMP JUMPDEST PUSH2 0x1F96 DUP2 PUSH2 0x1A8D JUMP JUMPDEST DUP3 MSTORE POP POP JUMP JUMPDEST PUSH1 0xC0 DUP3 ADD PUSH0 DUP3 ADD MLOAD PUSH2 0x1FB0 PUSH0 DUP6 ADD DUP3 PUSH2 0x1F7E JUMP JUMPDEST POP PUSH1 0x20 DUP3 ADD MLOAD PUSH2 0x1FC3 PUSH1 0x20 DUP6 ADD DUP3 PUSH2 0x1F7E JUMP JUMPDEST POP PUSH1 0x40 DUP3 ADD MLOAD PUSH2 0x1FD6 PUSH1 0x40 DUP6 ADD DUP3 PUSH2 0x1F7E JUMP JUMPDEST POP PUSH1 0x60 DUP3 ADD MLOAD PUSH2 0x1FE9 PUSH1 0x60 DUP6 ADD DUP3 PUSH2 0x1F7E JUMP JUMPDEST POP PUSH1 0x80 DUP3 ADD MLOAD PUSH2 0x1FFC PUSH1 0x80 DUP6 ADD DUP3 PUSH2 0x1F7E JUMP JUMPDEST POP PUSH1 0xA0 DUP3 ADD MLOAD PUSH2 0x200F PUSH1 0xA0 DUP6 ADD DUP3 PUSH2 0x1F8D JUMP JUMPDEST POP POP POP POP JUMP JUMPDEST PUSH0 PUSH2 0x2020 DUP4 DUP4 PUSH2 0x1F9C JUMP JUMPDEST PUSH1 0xC0 DUP4 ADD SWAP1 POP SWAP3 SWAP2 POP POP JUMP JUMPDEST PUSH0 PUSH1 0x20 DUP3 ADD SWAP1 POP SWAP2 SWAP1 POP JUMP JUMPDEST PUSH0 PUSH2 0x2042 DUP3 PUSH2 0x1F55 JUMP JUMPDEST PUSH2 0x204C DUP2 DUP6 PUSH2 0x1F5F JUMP JUMPDEST SWAP4 POP PUSH2 0x2057 DUP4 PUSH2 0x1F6F JUMP JUMPDEST DUP1 PUSH0 JUMPDEST DUP4 DUP2 LT ISZERO PUSH2 0x2087 JUMPI DUP2 MLOAD PUSH2 0x206E DUP9 DUP3 PUSH2 0x2015 JUMP JUMPDEST SWAP8 POP PUSH2 0x2079 DUP4 PUSH2 0x202C JUMP JUMPDEST SWAP3 POP POP PUSH1 0x1 DUP2 ADD SWAP1 POP PUSH2 0x205A JUMP JUMPDEST POP DUP6 SWAP4 POP POP POP POP SWAP3 SWAP2 POP POP JUMP JUMPDEST PUSH0 PUSH1 0x20 DUP3 ADD SWAP1 POP DUP2 DUP2 SUB PUSH0 DUP4 ADD MSTORE PUSH2 0x20AC DUP2 DUP5 PUSH2 0x2038 JUMP JUMPDEST SWAP1 POP SWAP3 SWAP2 POP POP JUMP JUMPDEST PUSH0 PUSH0 PUSH1 0x40 DUP4 DUP6 SUB SLT ISZERO PUSH2 0x20CA JUMPI PUSH2 0x20C9 PUSH2 0x1AF8 JUMP JUMPDEST JUMPDEST PUSH0 PUSH2 0x20D7 DUP6 DUP3 DUP7 ADD PUSH2 0x1B46 JUMP JUMPDEST SWAP3 POP POP PUSH1 0x20 PUSH2 0x20E8 DUP6 DUP3 DUP7 ADD PUSH2 0x1E56 JUMP JUMPDEST SWAP2 POP POP SWAP3 POP SWAP3 SWAP1 POP JUMP JUMPDEST PUSH0 PUSH1 0xC0 DUP3 ADD SWAP1 POP PUSH2 0x2105 PUSH0 DUP4 ADD DUP10 PUSH2 0x1AC7 JUMP JUMPDEST PUSH2 0x2112 PUSH1 0x20 DUP4 ADD DUP9 PUSH2 0x1AC7 JUMP JUMPDEST PUSH2 0x211F PUSH1 0x40 DUP4 ADD DUP8 PUSH2 0x1AC7 JUMP JUMPDEST PUSH2 0x212C PUSH1 0x60 DUP4 ADD DUP7 PUSH2 0x1AC7 JUMP JUMPDEST PUSH2 0x2139 PUSH1 0x80 DUP4 ADD DUP6 PUSH2 0x1AC7 JUMP JUMPDEST PUSH2 0x2146 PUSH1 0xA0 DUP4 ADD DUP5 PUSH2 0x1A96 JUMP JUMPDEST SWAP8 SWAP7 POP POP POP POP POP POP POP JUMP JUMPDEST PUSH0 DUP3 DUP3 MSTORE PUSH1 0x20 DUP3 ADD SWAP1 POP SWAP3 SWAP2 POP POP JUMP JUMPDEST PUSH0 PUSH2 0x216B DUP3 PUSH2 0x1D08 JUMP JUMPDEST PUSH2 0x2175 DUP2 DUP6 PUSH2 0x2151 JUMP JUMPDEST SWAP4 POP PUSH2 0x2185 DUP2 DUP6 PUSH1 0x20 DUP7 ADD PUSH2 0x1D22 JUMP JUMPDEST PUSH2 0x218E DUP2 PUSH2 0x1B8D JUMP JUMPDEST DUP5 ADD SWAP2 POP POP SWAP3 SWAP2 POP POP JUMP JUMPDEST PUSH2 0x21A2 DUP2 PUSH2 0x1B1F JUMP JUMPDEST DUP3 MSTORE POP POP JUMP JUMPDEST PUSH2 0x21B1 DUP2 PUSH2 0x1D77 JUMP JUMPDEST DUP3 MSTORE POP POP JUMP JUMPDEST PUSH0 PUSH2 0x140 DUP4 ADD PUSH0 DUP4 ADD MLOAD DUP5 DUP3 SUB PUSH0 DUP7 ADD MSTORE PUSH2 0x21D2 DUP3 DUP3 PUSH2 0x2161 JUMP JUMPDEST SWAP2 POP POP PUSH1 0x20 DUP4 ADD MLOAD PUSH2 0x21E7 PUSH1 0x20 DUP7 ADD DUP3 PUSH2 0x2199 JUMP JUMPDEST POP PUSH1 0x40 DUP4 ADD MLOAD PUSH2 0x21FA PUSH1 0x40 DUP7 ADD DUP3 PUSH2 0x2199 JUMP JUMPDEST POP PUSH1 0x60 DUP4 ADD MLOAD PUSH2 0x220D PUSH1 0x60 DUP7 ADD DUP3 PUSH2 0x1F7E JUMP JUMPDEST POP PUSH1 0x80 DUP4 ADD MLOAD PUSH2 0x2220 PUSH1 0x80 DUP7 ADD DUP3 PUSH2 0x1F7E JUMP JUMPDEST POP PUSH1 0xA0 DUP4 ADD MLOAD PUSH2 0x2233 PUSH1 0xA0 DUP7 ADD DUP3 PUSH2 0x1F7E JUMP JUMPDEST POP PUSH1 0xC0 DUP4 ADD MLOAD DUP5 DUP3 SUB PUSH1 0xC0 DUP7 ADD MSTORE PUSH2 0x224B DUP3 DUP3 PUSH2 0x2161 JUMP JUMPDEST SWAP2 POP POP PUSH1 0xE0 DUP4 ADD MLOAD DUP5 DUP3 SUB PUSH1 0xE0 DUP7 ADD MSTORE PUSH2 0x2265 DUP3 DUP3 PUSH2 0x2161 JUMP JUMPDEST SWAP2 POP POP PUSH2 0x100 DUP4 ADD MLOAD PUSH2 0x227C PUSH2 0x100 DUP7 ADD DUP3 PUSH2 0x1F7E JUMP JUMPDEST POP PUSH2 0x120 DUP4 ADD MLOAD PUSH2 0x2291 PUSH2 0x120 DUP7 ADD DUP3 PUSH2 0x21A8 JUMP JUMPDEST POP DUP1 SWAP2 POP POP SWAP3 SWAP2 POP POP JUMP JUMPDEST PUSH0 PUSH1 0x20 DUP3 ADD SWAP1 POP DUP2 DUP2 SUB PUSH0 DUP4 ADD MSTORE PUSH2 0x22B4 DUP2 DUP5 PUSH2 0x21B7 JUMP JUMPDEST SWAP1 POP SWAP3 SWAP2 POP POP JUMP JUMPDEST PUSH0 PUSH0 PUSH1 0x40 DUP4 DUP6 SUB SLT ISZERO PUSH2 0x22D2 JUMPI PUSH2 0x22D1 PUSH2 0x1AF8 JUMP JUMPDEST JUMPDEST PUSH0 PUSH2 0x22DF DUP6 DUP3 DUP7 ADD PUSH2 0x1EE4 JUMP JUMPDEST SWAP3 POP POP PUSH1 0x20 DUP4 ADD CALLDATALOAD PUSH8 0xFFFFFFFFFFFFFFFF DUP2 GT ISZERO PUSH2 0x2300 JUMPI PUSH2 0x22FF PUSH2 0x1AFC JUMP JUMPDEST JUMPDEST PUSH2 0x230C DUP6 DUP3 DUP7 ADD PUSH2 0x1C94 JUMP JUMPDEST SWAP2 POP POP SWAP3 POP SWAP3 SWAP1 POP JUMP JUMPDEST PUSH0 PUSH1 0x20 DUP3 DUP5 SUB SLT ISZERO PUSH2 0x232B JUMPI PUSH2 0x232A PUSH2 0x1AF8 JUMP JUMPDEST JUMPDEST PUSH0 PUSH2 0x2338 DUP5 DUP3 DUP6 ADD PUSH2 0x1E56 JUMP JUMPDEST SWAP2 POP POP SWAP3 SWAP2 POP POP JUMP JUMPDEST PUSH0 PUSH1 0x20 DUP3 ADD SWAP1 POP DUP2 DUP2 SUB PUSH0 DUP4 ADD MSTORE PUSH2 0x2359 DUP2 DUP5 PUSH2 0x1D30 JUMP JUMPDEST SWAP1 POP SWAP3 SWAP2 POP POP JUMP JUMPDEST PUSH0 PUSH0 PUSH0 PUSH0 PUSH0 PUSH0 PUSH0 PUSH0 PUSH2 0x100 DUP10 DUP12 SUB SLT ISZERO PUSH2 0x237E JUMPI PUSH2 0x237D PUSH2 0x1AF8 JUMP JUMPDEST JUMPDEST PUSH0 DUP10 ADD CALLDATALOAD PUSH8 0xFFFFFFFFFFFFFFFF DUP2 GT ISZERO PUSH2 0x239B JUMPI PUSH2 0x239A PUSH2 0x1AFC JUMP JUMPDEST JUMPDEST PUSH2 0x23A7 DUP12 DUP3 DUP13 ADD PUSH2 0x1C94 JUMP JUMPDEST SWAP9 POP POP PUSH1 0x20 PUSH2 0x23B8 DUP12 DUP3 DUP13 ADD PUSH2 0x1B46 JUMP JUMPDEST SWAP8 POP POP PUSH1 0x40 PUSH2 0x23C9 DUP12 DUP3 DUP13 ADD PUSH2 0x1B46 JUMP JUMPDEST SWAP7 POP POP PUSH1 0x60 PUSH2 0x23DA DUP12 DUP3 DUP13 ADD PUSH2 0x1E56 JUMP JUMPDEST SWAP6 POP POP PUSH1 0x80 PUSH2 0x23EB DUP12 DUP3 DUP13 ADD PUSH2 0x1E56 JUMP JUMPDEST SWAP5 POP POP PUSH1 0xA0 PUSH2 0x23FC DUP12 DUP3 DUP13 ADD PUSH2 0x1E56 JUMP JUMPDEST SWAP4 POP POP PUSH1 0xC0 DUP10 ADD CALLDATALOAD PUSH8 0xFFFFFFFFFFFFFFFF DUP2 GT ISZERO PUSH2 0x241D JUMPI PUSH2 0x241C PUSH2 0x1AFC JUMP JUMPDEST JUMPDEST PUSH2 0x2429 DUP12 DUP3 DUP13 ADD PUSH2 0x1C94 JUMP JUMPDEST SWAP3 POP POP PUSH1 0xE0 DUP10 ADD CALLDATALOAD PUSH8 0xFFFFFFFFFFFFFFFF DUP2 GT ISZERO PUSH2 0x244A JUMPI PUSH2 0x2449 PUSH2 0x1AFC JUMP JUMPDEST JUMPDEST PUSH2 0x2456 DUP12 DUP3 DUP13 ADD PUSH2 0x1C94 JUMP JUMPDEST SWAP2 POP POP SWAP3 SWAP6 SWAP9 POP SWAP3 SWAP6 SWAP9 SWAP1 SWAP4 SWAP7 POP JUMP JUMPDEST PUSH32 0x4E6F7420617574686F72697A6564000000000000000000000000000000000000 PUSH0 DUP3 ADD MSTORE POP JUMP JUMPDEST PUSH0 PUSH2 0x249A PUSH1 0xE DUP4 PUSH2 0x1D12 JUMP JUMPDEST SWAP2 POP PUSH2 0x24A5 DUP3 PUSH2 0x2466 JUMP JUMPDEST PUSH1 0x20 DUP3 ADD SWAP1 POP SWAP2 SWAP1 POP JUMP JUMPDEST PUSH0 PUSH1 0x20 DUP3 ADD SWAP1 POP DUP2 DUP2 SUB PUSH0 DUP4 ADD MSTORE PUSH2 0x24C7 DUP2 PUSH2 0x248E JUMP JUMPDEST SWAP1 POP SWAP2 SWAP1 POP JUMP JUMPDEST PUSH32 0x4E487B7100000000000000000000000000000000000000000000000000000000 PUSH0 MSTORE PUSH1 0x22 PUSH1 0x4 MSTORE PUSH1 0x24 PUSH0 REVERT JUMPDEST PUSH0 PUSH1 0x2 DUP3 DIV SWAP1 POP PUSH1 0x1 DUP3 AND DUP1 PUSH2 0x2512 JUMPI PUSH1 0x7F DUP3 AND SWAP2 POP JUMPDEST PUSH1 0x20 DUP3 LT DUP2 SUB PUSH2 0x2525 JUMPI PUSH2 0x2524 PUSH2 0x24CE JUMP JUMPDEST JUMPDEST POP SWAP2 SWAP1 POP JUMP JUMPDEST PUSH32 0x4E487B7100000000000000000000000000000000000000000000000000000000 PUSH0 MSTORE PUSH1 0x11 PUSH1 0x4 MSTORE PUSH1 0x24 PUSH0 REVERT JUMPDEST PUSH0 PUSH2 0x2562 DUP3 PUSH2 0x1ABE JUMP JUMPDEST SWAP2 POP PUSH32 0xFFFFFFFFFFFFFFFFFFFFFFFFFFFFFFFFFFFFFFFFFFFFFFFFFFFFFFFFFFFFFFFF DUP3 SUB PUSH2 0x2594 JUMPI PUSH2 0x2593 PUSH2 0x252B JUMP JUMPDEST JUMPDEST PUSH1 0x1 DUP3 ADD SWAP1 POP SWAP2 SWAP1 POP JUMP JUMPDEST PUSH0 PUSH2 0x25A9 DUP3 PUSH2 0x1ABE JUMP JUMPDEST SWAP2 POP PUSH2 0x25B4 DUP4 PUSH2 0x1ABE JUMP JUMPDEST SWAP3 POP DUP3 DUP3 SUB SWAP1 POP DUP2 DUP2 GT ISZERO PUSH2 0x25CC JUMPI PUSH2 0x25CB PUSH2 0x252B JUMP JUMPDEST JUMPDEST SWAP3 SWAP2 POP POP JUMP JUMPDEST PUSH32 0x4E487B7100000000000000000000000000000000000000000000000000000000 PUSH0 MSTORE PUSH1 0x32 PUSH1 0x4 MSTORE PUSH1 0x24 PUSH0 REVERT JUMPDEST PUSH0 DUP2 SWAP1 POP SWAP2 SWAP1 POP JUMP JUMPDEST PUSH2 0x2619 PUSH2 0x2614 DUP3 PUSH2 0x1ABE JUMP JUMPDEST PUSH2 0x25FF JUMP JUMPDEST DUP3 MSTORE POP POP JUMP JUMPDEST PUSH0 PUSH2 0x262A DUP3 DUP7 PUSH2 0x2608 JUMP JUMPDEST PUSH1 0x20 DUP3 ADD SWAP2 POP PUSH2 0x263A DUP3 DUP6 PUSH2 0x2608 JUMP JUMPDEST PUSH1 0x20 DUP3 ADD SWAP2 POP PUSH2 0x264A DUP3 DUP5 PUSH2 0x2608 JUMP JUMPDEST PUSH1 0x20 DUP3 ADD SWAP2 POP DUP2 SWAP1 POP SWAP5 SWAP4 POP POP POP POP JUMP JUMPDEST PUSH0 PUSH1 0x80 DUP3 ADD SWAP1 POP PUSH2 0x266E PUSH0 DUP4 ADD DUP8 PUSH2 0x1AC7 JUMP JUMPDEST PUSH2 0x267B PUSH1 0x20 DUP4 ADD DUP7 PUSH2 0x1AC7 JUMP JUMPDEST PUSH2 0x2688 PUSH1 0x40 DUP4 ADD DUP6 PUSH2 0x1AC7 JUMP JUMPDEST PUSH2 0x2695 PUSH1 0x60 DUP4 ADD DUP5 PUSH2 0x1AC7 JUMP JUMPDEST SWAP6 SWAP5 POP POP POP POP POP JUMP JUMPDEST PUSH0 DUP2 SWAP1 POP SWAP3 SWAP2 POP POP JUMP JUMPDEST PUSH0 PUSH2 0x26B2 DUP3 PUSH2 0x1D08 JUMP JUMPDEST PUSH2 0x26BC DUP2 DUP6 PUSH2 0x269E JUMP JUMPDEST SWAP4 POP PUSH2 0x26CC DUP2 DUP6 PUSH1 0x20 DUP7 ADD PUSH2 0x1D22 JUMP JUMPDEST DUP1 DUP5 ADD SWAP2 POP POP SWAP3 SWAP2 POP POP JUMP JUMPDEST PUSH0 PUSH2 0x26E3 DUP3 DUP5 PUSH2 0x26A8 JUMP JUMPDEST SWAP2 POP DUP2 SWAP1 POP SWAP3 SWAP2 POP POP JUMP JUMPDEST PUSH0 DUP2 SWAP1 POP DUP2 PUSH0 MSTORE PUSH1 0x20 PUSH0 KECCAK256 SWAP1 POP SWAP2 SWAP1 POP JUMP JUMPDEST PUSH0 PUSH1 0x20 PUSH1 0x1F DUP4 ADD DIV SWAP1 POP SWAP2 SWAP1 POP JUMP JUMPDEST PUSH0 DUP3 DUP3 SHL SWAP1 POP SWAP3 SWAP2 POP POP JUMP JUMPDEST PUSH0 PUSH1 0x8 DUP4 MUL PUSH2 0x274A PUSH32 0xFFFFFFFFFFFFFFFFFFFFFFFFFFFFFFFFFFFFFFFFFFFFFFFFFFFFFFFFFFFFFFFF DUP3 PUSH2 0x270F JUMP JUMPDEST PUSH2 0x2754 DUP7 DUP4 PUSH2 0x270F JUMP JUMPDEST SWAP6 POP DUP1 NOT DUP5 AND SWAP4 POP DUP1 DUP7 AND DUP5 OR SWAP3 POP POP POP SWAP4 SWAP3 POP POP POP JUMP JUMPDEST PUSH0 DUP2 SWAP1 POP SWAP2 SWAP1 POP JUMP JUMPDEST PUSH0 PUSH2 0x278F PUSH2 0x278A PUSH2 0x2785 DUP5 PUSH2 0x1ABE JUMP JUMPDEST PUSH2 0x276C JUMP JUMPDEST PUSH2 0x1ABE JUMP JUMPDEST SWAP1 POP SWAP2 SWAP1 POP JUMP JUMPDEST PUSH0 DUP2 SWAP1 POP SWAP2 SWAP1 POP JUMP JUMPDEST PUSH2 0x27A8 DUP4 PUSH2 0x2775 JUMP JUMPDEST PUSH2 0x27BC PUSH2 0x27B4 DUP3 PUSH2 0x2796 JUMP JUMPDEST DUP5 DUP5 SLOAD PUSH2 0x271B JUMP JUMPDEST DUP3 SSTORE POP POP POP POP JUMP JUMPDEST PUSH0 PUSH0 SWAP1 POP SWAP1 JUMP JUMPDEST PUSH2 0x27D3 PUSH2 0x27C4 JUMP JUMPDEST PUSH2 0x27DE DUP2 DUP5 DUP5 PUSH2 0x279F JUMP JUMPDEST POP POP POP JUMP JUMPDEST JUMPDEST DUP2 DUP2 LT ISZERO PUSH2 0x2801 JUMPI PUSH2 0x27F6 PUSH0 DUP3 PUSH2 0x27CB JUMP JUMPDEST PUSH1 0x1 DUP2 ADD SWAP1 POP PUSH2 0x27E4 JUMP JUMPDEST POP POP JUMP JUMPDEST PUSH1 0x1F DUP3 GT ISZERO PUSH2 0x2846 JUMPI PUSH2 0x2817 DUP2 PUSH2 0x26EE JUMP JUMPDEST PUSH2 0x2820 DUP5 PUSH2 0x2700 JUMP JUMPDEST DUP2 ADD PUSH1 0x20 DUP6 LT ISZERO PUSH2 0x282F JUMPI DUP2 SWAP1 POP JUMPDEST PUSH2 0x2843 PUSH2 0x283B DUP6 PUSH2 0x2700 JUMP JUMPDEST DUP4 ADD DUP3 PUSH2 0x27E3 JUMP JUMPDEST POP POP JUMPDEST POP POP POP JUMP JUMPDEST PUSH0 DUP3 DUP3 SHR SWAP1 POP SWAP3 SWAP2 POP POP JUMP JUMPDEST PUSH0 PUSH2 0x2866 PUSH0 NOT DUP5 PUSH1 0x8 MUL PUSH2 0x284B JUMP JUMPDEST NOT DUP1 DUP4 AND SWAP2 POP POP SWAP3 SWAP2 POP POP JUMP JUMPDEST PUSH0 PUSH2 0x287E DUP4 DUP4 PUSH2 0x2857 JUMP JUMPDEST SWAP2 POP DUP3 PUSH1 0x2 MUL DUP3 OR SWAP1 POP SWAP3 SWAP2 POP POP JUMP JUMPDEST PUSH2 0x2897 DUP3 PUSH2 0x1D08 JUMP JUMPDEST PUSH8 0xFFFFFFFFFFFFFFFF DUP2 GT ISZERO PUSH2 0x28B0 JUMPI PUSH2 0x28AF PUSH2 0x1B9D JUMP JUMPDEST JUMPDEST PUSH2 0x28BA DUP3 SLOAD PUSH2 0x24FB JUMP JUMPDEST PUSH2 0x28C5 DUP3 DUP3 DUP6 PUSH2 0x2805 JUMP JUMPDEST PUSH0 PUSH1 0x20 SWAP1 POP PUSH1 0x1F DUP4 GT PUSH1 0x1 DUP2 EQ PUSH2 0x28F6 JUMPI PUSH0 DUP5 ISZERO PUSH2 0x28E4 JUMPI DUP3 DUP8 ADD MLOAD SWAP1 POP JUMPDEST PUSH2 0x28EE DUP6 DUP3 PUSH2 0x2873 JUMP JUMPDEST DUP7 SSTORE POP PUSH2 0x2955 JUMP JUMPDEST PUSH1 0x1F NOT DUP5 AND PUSH2 0x2904 DUP7 PUSH2 0x26EE JUMP JUMPDEST PUSH0 JUMPDEST DUP3 DUP2 LT ISZERO PUSH2 0x292B JUMPI DUP5 DUP10 ADD MLOAD DUP3 SSTORE PUSH1 0x1 DUP3 ADD SWAP2 POP PUSH1 0x20 DUP6 ADD SWAP5 POP PUSH1 0x20 DUP2 ADD SWAP1 POP PUSH2 0x2906 JUMP JUMPDEST DUP7 DUP4 LT ISZERO PUSH2 0x2948 JUMPI DUP5 DUP10 ADD MLOAD PUSH2 0x2944 PUSH1 0x1F DUP10 AND DUP3 PUSH2 0x2857 JUMP JUMPDEST DUP4 SSTORE POP JUMPDEST PUSH1 0x1 PUSH1 0x2 DUP9 MUL ADD DUP9 SSTORE POP POP POP JUMPDEST POP POP POP POP POP POP JUMP JUMPDEST PUSH0 PUSH1 0x40 DUP3 ADD SWAP1 POP DUP2 DUP2 SUB PUSH0 DUP4 ADD MSTORE PUSH2 0x2975 DUP2 DUP6 PUSH2 0x1D30 JUMP JUMPDEST SWAP1 POP PUSH2 0x2984 PUSH1 0x20 DUP4 ADD DUP5 PUSH2 0x1AC7 JUMP JUMPDEST SWAP4 SWAP3 POP POP POP JUMP JUMPDEST PUSH32 0x416C7265616479206C6F67676564000000000000000000000000000000000000 PUSH0 DUP3 ADD MSTORE POP JUMP JUMPDEST PUSH0 PUSH2 0x29BF PUSH1 0xE DUP4 PUSH2 0x1D12 JUMP JUMPDEST SWAP2 POP PUSH2 0x29CA DUP3 PUSH2 0x298B JUMP JUMPDEST PUSH1 0x20 DUP3 ADD SWAP1 POP SWAP2 SWAP1 POP JUMP JUMPDEST PUSH0 PUSH1 0x20 DUP3 ADD SWAP1 POP DUP2 DUP2 SUB PUSH0 DUP4 ADD MSTORE PUSH2 0x29EC DUP2 PUSH2 0x29B3 JUMP JUMPDEST SWAP1 POP SWAP2 SWAP1 POP JUMP JUMPDEST PUSH0 PUSH1 0xA0 DUP3 ADD SWAP1 POP DUP2 DUP2 SUB PUSH0 DUP4 ADD MSTORE PUSH2 0x2A0B DUP2 DUP9 PUSH2 0x1D30 JUMP JUMPDEST SWAP1 POP DUP2 DUP2 SUB PUSH1 0x20 DUP4 ADD MSTORE PUSH2 0x2A1F DUP2 DUP8 PUSH2 0x1D30 JUMP JUMPDEST SWAP1 POP PUSH2 0x2A2E PUSH1 0x40 DUP4 ADD DUP7 PUSH2 0x1AC7 JUMP JUMPDEST PUSH2 0x2A3B PUSH1 0x60 DUP4 ADD DUP6 PUSH2 0x1AC7 JUMP JUMPDEST PUSH2 0x2A48 PUSH1 0x80 DUP4 ADD DUP5 PUSH2 0x1AC7 JUMP JUMPDEST SWAP7 SWAP6 POP POP POP POP POP POP JUMP JUMPDEST PUSH32 0x4175746F2D626C61636B6C69737465643A20686967682066726175642073636F PUSH0 DUP3 ADD MSTORE PUSH32 0x7265000000000000000000000000000000000000000000000000000000000000 PUSH1 0x20 DUP3 ADD MSTORE POP JUMP JUMPDEST PUSH0 PUSH2 0x2AAC PUSH1 0x22 DUP4 PUSH2 0x1D12 JUMP JUMPDEST SWAP2 POP PUSH2 0x2AB7 DUP3 PUSH2 0x2A52 JUMP JUMPDEST PUSH1 0x40 DUP3 ADD SWAP1 POP SWAP2 SWAP1 POP JUMP JUMPDEST PUSH0 PUSH1 0x40 DUP3 ADD SWAP1 POP DUP2 DUP2 SUB PUSH0 DUP4 ADD MSTORE PUSH2 0x2AD9 DUP2 PUSH2 0x2AA0 JUMP JUMPDEST SWAP1 POP PUSH2 0x2AE8 PUSH1 0x20 DUP4 ADD DUP5 PUSH2 0x1AC7 JUMP JUMPDEST SWAP3 SWAP2 POP POP JUMP INVALID LOG2 PUSH5 0x6970667358 0x22 SLT KECCAK256 0xD8 0xE1 PUSH24 0x4D521A21C8C4592463D1857202AE39607167FD71F746277C 0xA7 PUSH8 0x1558464736F6C63 NUMBER STOP ADDMOD SHR STOP CALLER "},"methodIdentifiers":{"BLOCK_THRESHOLD_ETH()":"b0188a2c","FREEZE_THRESHOLD_ETH()":"288314a6","blacklisted(address)":"dbac26e9","getThresholdCount(address)":"d05bf9cb","getThresholdHistory(address)":"9109d0d1","getTotalTransactions()":"b5c604ff","getTransaction(string)":"ac2ccd07","isBlacklisted(address)":"fe575a87","logTransaction(string,address,address,uint256,uint256,uint256,string,string)":"e040708f","manualBlacklist(address)":"45071d68","modelDeployedAt()":"e840be32","modelHash()":"1b2ccc09","modelVersion()":"edb3ba0b","owner()":"8da5cb5b","records(string)":"541e771d","registerModelHash(bytes32,string)":"ac48ae7e","removeBlacklist(address)":"eb91e651","thresholdHistory(address,uint256)":"92a1ab49","txHashes(uint256)":"bbd7be31","updateWalletThreshold(address,uint256,uint256,uint256)":"609efeb3","verifyModelHash(bytes32)":"7549a936","walletLastThreshold(address)":"b663db60","walletTxCount(address)":"e858a262"}}}}}