{
  "_format": "hh3-artifact-1",
  "contractName": "FraudDetection",
  "sourceName": "contracts/FraudDetection.sol",
  "abi": [
    {
      "inputs": [],
      "stateMutability": "nonpayable",
      "type": "constructor"
    },
    {
      "anonymous": false,
      "inputs": [
        {
          "indexed": true,
          "internalType": "address",
          "name": "sender",
          "type": "address"
        },
        {
          "indexed": false,
          "internalType": "string",
          "name": "message",
          "type": "string"
        },
        {
          "indexed": false,
          "internalType": "uint256",
          "name": "timestamp",
          "type": "uint256"
        }
      ],
      "name": "AlertTriggered",
      "type": "event"
    },
    {
      "anonymous": false,
      "inputs": [
        {
          "indexed": true,
          "internalType": "bytes32",
          "name": "hash",
          "type": "bytes32"
        },
        {
          "indexed": false,
          "internalType": "string",
          "name": "version",
          "type": "string"
        },
        {
          "indexed": false,
          "internalType": "uint256",
          "name": "timestamp",
          "type": "uint256"
        }
      ],
      "name": "ModelHashRegistered",
      "type": "event"
    },
    {
      "anonymous": false,
      "inputs": [
        {
          "indexed": true,
          "internalType": "address",
          "name": "wallet",
          "type": "address"
        },
        {
          "indexed": false,
          "internalType": "uint256",
          "name": "threshold",
          "type": "uint256"
        },
        {
          "indexed": false,
          "internalType": "uint256",
          "name": "fraudScore",
          "type": "uint256"
        },
        {
          "indexed": false,
          "internalType": "uint256",
          "name": "txCount",
          "type": "uint256"
        },
        {
          "indexed": false,
          "internalType": "uint256",
          "name": "timestamp",
          "type": "uint256"
        }
      ],
      "name": "ThresholdUpdated",
      "type": "event"
    },
    {
      "anonymous": false,
      "inputs": [
        {
          "indexed": true,
          "internalType": "string",
          "name": "txHash",
          "type": "string"
        },
        {
          "indexed": true,
          "internalType": "address",
          "name": "sender",
          "type": "address"
        },
        {
          "indexed": false,
          "internalType": "string",
          "name": "decision",
          "type": "string"
        },
        {
          "indexed": false,
          "internalType": "string",
          "name": "action",
          "type": "string"
        },
        {
          "indexed": false,
          "internalType": "uint256",
          "name": "fraudScore",
          "type": "uint256"
        },
        {
          "indexed": false,
          "internalType": "uint256",
          "name": "threshold",
          "type": "uint256"
        },
        {
          "indexed": false,
          "internalType": "uint256",
          "name": "timestamp",
          "type": "uint256"
        }
      ],
      "name": "TransactionLogged",
      "type": "event"
    },
    {
      "anonymous": false,
      "inputs": [
        {
          "indexed": true,
          "internalType": "address",
          "name": "wallet",
          "type": "address"
        },
        {
          "indexed": false,
          "internalType": "uint256",
          "name": "timestamp",
          "type": "uint256"
        }
      ],
      "name": "WalletBlacklisted",
      "type": "event"
    },
    {
      "inputs": [],
      "name": "BLOCK_THRESHOLD_ETH",
      "outputs": [
        {
          "internalType": "uint256",
          "name": "",
          "type": "uint256"
        }
      ],
      "stateMutability": "view",
      "type": "function"
    },
    {
      "inputs": [],
      "name": "FREEZE_THRESHOLD_ETH",
      "outputs": [
        {
          "internalType": "uint256",
          "name": "",
          "type": "uint256"
        }
      ],
      "stateMutability": "view",
      "type": "function"
    },
    {
      "inputs": [
        {
          "internalType": "address",
          "name": "",
          "type": "address"
        }
      ],
      "name": "blacklisted",
      "outputs": [
        {
          "internalType": "bool",
          "name": "",
          "type": "bool"
        }
      ],
      "stateMutability": "view",
      "type": "function"
    },
    {
      "inputs": [
        {
          "internalType": "address",
          "name": "wallet",
          "type": "address"
        }
      ],
      "name": "getThresholdCount",
      "outputs": [
        {
          "internalType": "uint256",
          "name": "",
          "type": "uint256"
        }
      ],
      "stateMutability": "view",
      "type": "function"
    },
    {
      "inputs": [
        {
          "internalType": "address",
          "name": "wallet",
          "type": "address"
        }
      ],
      "name": "getThresholdHistory",
      "outputs": [
        {
          "components": [
            {
              "internalType": "uint256",
              "name": "threshold",
              "type": "uint256"
            },
            {
              "internalType": "uint256",
              "name": "fraudScore",
              "type": "uint256"
            },
            {
              "internalType": "uint256",
              "name": "txCount",
              "type": "uint256"
            },
            {
              "internalType": "uint256",
              "name": "amountWei",
              "type": "uint256"
            },
            {
              "internalType": "uint256",
              "name": "timestamp",
              "type": "uint256"
            },
            {
              "internalType": "bytes32",
              "name": "prevHash",
              "type": "bytes32"
            }
          ],
          "internalType": "struct FraudDetection.ThresholdRecord[]",
          "name": "",
          "type": "tuple[]"
        }
      ],
      "stateMutability": "view",
      "type": "function"
    },
    {
      "inputs": [],
      "name": "getTotalTransactions",
      "outputs": [
        {
          "internalType": "uint256",
          "name": "",
          "type": "uint256"
        }
      ],
      "stateMutability": "view",
      "type": "function"
    },
    {
      "inputs": [
        {
          "internalType": "string",
          "name": "h",
          "type": "string"
        }
      ],
      "name": "getTransaction",
      "outputs": [
        {
          "components": [
            {
              "internalType": "string",
              "name": "txHash",
              "type": "string"
            },
            {
              "internalType": "address",
              "name": "sender",
              "type": "address"
            },
            {
              "internalType": "address",
              "name": "receiver",
              "type": "address"
            },
            {
              "internalType": "uint256",
              "name": "amountWei",
              "type": "uint256"
            },
            {
              "internalType": "uint256",
              "name": "fraudScore",
              "type": "uint256"
            },
            {
              "internalType": "uint256",
              "name": "threshold",
              "type": "uint256"
            },
            {
              "internalType": "string",
              "name": "decision",
              "type": "string"
            },
            {
              "internalType": "string",
              "name": "action",
              "type": "string"
            },
            {
              "internalType": "uint256",
              "name": "timestamp",
              "type": "uint256"
            },
            {
              "internalType": "bool",
              "name": "exists",
              "type": "bool"
            }
          ],
          "internalType": "struct FraudDetection.TransactionRecord",
          "name": "",
          "type": "tuple"
        }
      ],
      "stateMutability": "view",
      "type": "function"
    },
    {
      "inputs": [
        {
          "internalType": "address",
          "name": "wallet",
          "type": "address"
        }
      ],
      "name": "isBlacklisted",
      "outputs": [
        {
          "internalType": "bool",
          "name": "",
          "type": "bool"
        }
      ],
      "stateMutability": "view",
      "type": "function"
    },
    {
      "inputs": [
        {
          "internalType": "string",
          "name": "txHash",
          "type": "string"
        },
        {
          "internalType": "address",
          "name": "sender",
          "type": "address"
        },
        {
          "internalType": "address",
          "name": "receiver",
          "type": "address"
        },
        {
          "internalType": "uint256",
          "name": "amountWei",
          "type": "uint256"
        },
        {
          "internalType": "uint256",
          "name": "fraudScore",
          "type": "uint256"
        },
        {
          "internalType": "uint256",
          "name": "threshold",
          "type": "uint256"
        },
        {
          "internalType": "string",
          "name": "decision",
          "type": "string"
        },
        {
          "internalType": "string",
          "name": "action",
          "type": "string"
        }
      ],
      "name": "logTransaction",
      "outputs": [],
      "stateMutability": "nonpayable",
      "type": "function"
    },
    {
      "inputs": [
        {
          "internalType": "address",
          "name": "wallet",
          "type": "address"
        }
      ],
      "name": "manualBlacklist",
      "outputs": [],
      "stateMutability": "nonpayable",
      "type": "function"
    },
    {
      "inputs": [],
      "name": "modelDeployedAt",
      "outputs": [
        {
          "internalType": "uint256",
          "name": "",
          "type": "uint256"
        }
      ],
      "stateMutability": "view",
      "type": "function"
    },
    {
      "inputs": [],
      "name": "modelHash",
      "outputs": [
        {
          "internalType": "bytes32",
          "name": "",
          "type": "bytes32"
        }
      ],
      "stateMutability": "view",
      "type": "function"
    },
    {
      "inputs": [],
      "name": "modelVersion",
      "outputs": [
        {
          "internalType": "string",
          "name": "",
          "type": "string"
        }
      ],
      "stateMutability": "view",
      "type": "function"
    },
    {
      "inputs": [],
      "name": "owner",
      "outputs": [
        {
          "internalType": "address",
          "name": "",
          "type": "address"
        }
      ],
      "stateMutability": "view",
      "type": "function"
    },
    {
      "inputs": [
        {
          "internalType": "string",
          "name": "",
          "type": "string"
        }
      ],
      "name": "records",
      "outputs": [
        {
          "internalType": "string",
          "name": "txHash",
          "type": "string"
        },
        {
          "internalType": "address",
          "name": "sender",
          "type": "address"
        },
        {
          "internalType": "address",
          "name": "receiver",
          "type": "address"
        },
        {
          "internalType": "uint256",
          "name": "amountWei",
          "type": "uint256"
        },
        {
          "internalType": "uint256",
          "name": "fraudScore",
          "type": "uint256"
        },
        {
          "internalType": "uint256",
          "name": "threshold",
          "type": "uint256"
        },
        {
          "internalType": "string",
          "name": "decision",
          "type": "string"
        },
        {
          "internalType": "string",
          "name": "action",
          "type": "string"
        },
        {
          "internalType": "uint256",
          "name": "timestamp",
          "type": "uint256"
        },
        {
          "internalType": "bool",
          "name": "exists",
          "type": "bool"
        }
      ],
      "stateMutability": "view",
      "type": "function"
    },
    {
      "inputs": [
        {
          "internalType": "bytes32",
          "name": "hash",
          "type": "bytes32"
        },
        {
          "internalType": "string",
          "name": "version",
          "type": "string"
        }
      ],
      "name": "registerModelHash",
      "outputs": [],
      "stateMutability": "nonpayable",
      "type": "function"
    },
    {
      "inputs": [
        {
          "internalType": "address",
          "name": "wallet",
          "type": "address"
        }
      ],
      "name": "removeBlacklist",
      "outputs": [],
      "stateMutability": "nonpayable",
      "type": "function"
    },
    {
      "inputs": [
        {
          "internalType": "address",
          "name": "",
          "type": "address"
        },
        {
          "internalType": "uint256",
          "name": "",
          "type": "uint256"
        }
      ],
      "name": "thresholdHistory",
      "outputs": [
        {
          "internalType": "uint256",
          "name": "threshold",
          "type": "uint256"
        },
        {
          "internalType": "uint256",
          "name": "fraudScore",
          "type": "uint256"
        },
        {
          "internalType": "uint256",
          "name": "txCount",
          "type": "uint256"
        },
        {
          "internalType": "uint256",
          "name": "amountWei",
          "type": "uint256"
        },
        {
          "internalType": "uint256",
          "name": "timestamp",
          "type": "uint256"
        },
        {
          "internalType": "bytes32",
          "name": "prevHash",
          "type": "bytes32"
        }
      ],
      "stateMutability": "view",
      "type": "function"
    },
    {
      "inputs": [
        {
          "internalType": "uint256",
          "name": "",
          "type": "uint256"
        }
      ],
      "name": "txHashes",
      "outputs": [
        {
          "internalType": "string",
          "name": "",
          "type": "string"
        }
      ],
      "stateMutability": "view",
      "type": "function"
    },
    {
      "inputs": [
        {
          "internalType": "address",
          "name": "wallet",
          "type": "address"
        },
        {
          "internalType": "uint256",
          "name": "threshold",
          "type": "uint256"
        },
        {
          "internalType": "uint256",
          "name": "fraudScore",
          "type": "uint256"
        },
        {
          "internalType": "uint256",
          "name": "amountWei",
          "type": "uint256"
        }
      ],
      "name": "updateWalletThreshold",
      "outputs": [],
      "stateMutability": "nonpayable",
      "type": "function"
    },
    {
      "inputs": [
        {
          "internalType": "bytes32",
          "name": "currentHash",
          "type": "bytes32"
        }
      ],
      "name": "verifyModelHash",
      "outputs": [
        {
          "internalType": "bool",
          "name": "",
          "type": "bool"
        }
      ],
      "stateMutability": "view",
      "type": "function"
    },
    {
      "inputs": [
        {
          "internalType": "address",
          "name": "",
          "type": "address"
        }
      ],
      "name": "walletLastThreshold",
      "outputs": [
        {
          "internalType": "uint256",
          "name": "",
          "type": "uint256"
        }
      ],
      "stateMutability": "view",
      "type": "function"
    },
    {
      "inputs": [
        {
          "internalType": "address",
          "name": "",
          "type": "address"
        }
      ],
      "name": "walletTxCount",
      "outputs": [
        {
          "internalType": "uint256",
          "name": "",
          "type": "uint256"
        }
      ],
      "stateMutability": "view",
      "type": "function"
    }
  ],
  "bytecode": "0x6080604052680168d28e3f002800006001556802b5e3af16b18800006002553480156028575f5ffd5b50335f5f6101000a81548173ffffffffffffffffffffffffffffffffffffffff021916908373ffffffffffffffffffffffffffffffffffffffff160217905550612b24806100755f395ff3fe608060405234801561000f575f5ffd5b506004361061014b575f3560e01c8063b0188a2c116100c1578063e040708f1161007a578063e040708f146103f7578063e840be3214610413578063e858a26214610431578063eb91e65114610461578063edb3ba0b1461047d578063fe575a871461049b5761014b565b8063b0188a2c146102fb578063b5c604ff14610319578063b663db6014610337578063bbd7be3114610367578063d05bf9cb14610397578063dbac26e9146103c75761014b565b80637549a936116101135780637549a936146101fc5780638da5cb5b1461022c5780639109d0d11461024a57806392a1ab491461027a578063ac2ccd07146102af578063ac48ae7e146102df5761014b565b80631b2ccc091461014f578063288314a61461016d57806345071d681461018b578063541e771d146101a7578063609efeb3146101e0575b5f5ffd5b6101576104cb565b6040516101649190611aa5565b60405180910390f35b6101756104d1565b6040516101829190611ad6565b60405180910390f35b6101a560048036038101906101a09190611b5a565b6104d7565b005b6101c160048036038101906101bc9190611cc1565b610571565b6040516101d79a99989796959493929190611d91565b60405180910390f35b6101fa60048036038101906101f59190611e6a565b6107b5565b005b61021660048036038101906102119190611ef8565b610bb5565b6040516102239190611f23565b60405180910390f35b610234610bd2565b6040516102419190611f3c565b60405180910390f35b610264600480360381019061025f9190611b5a565b610bf6565b6040516102719190612094565b60405180910390f35b610294600480360381019061028f91906120b4565b610cca565b6040516102a6969594939291906120f2565b60405180910390f35b6102c960048036038101906102c49190611cc1565b610d1c565b6040516102d6919061229c565b60405180910390f35b6102f960048036038101906102f491906122bc565b610ff0565b005b6103036110da565b6040516103109190611ad6565b60405180910390f35b6103216110e0565b60405161032e9190611ad6565b60405180910390f35b610351600480360381019061034c9190611b5a565b6110ec565b60405161035e9190611ad6565b60405180910390f35b610381600480360381019061037c9190612316565b611101565b60405161038e9190612341565b60405180910390f35b6103b160048036038101906103ac9190611b5a565b6111a7565b6040516103be9190611ad6565b60405180910390f35b6103e160048036038101906103dc9190611b5a565b6111f0565b6040516103ee9190611f23565b60405180910390f35b610411600480360381019061040c9190612361565b61120d565b005b61041b611740565b6040516104289190611ad6565b60405180910390f35b61044b60048036038101906104469190611b5a565b611746565b6040516104589190611ad6565b60405180910390f35b61047b60048036038101906104769190611b5a565b61175b565b005b610485611840565b6040516104929190612341565b60405180910390f35b6104b560048036038101906104b09190611b5a565b6118cc565b6040516104c29190611f23565b60405180910390f35b60035481565b60015481565b5f5f9054906101000a900473ffffffffffffffffffffffffffffffffffffffff1673ffffffffffffffffffffffffffffffffffffffff163373ffffffffffffffffffffffffffffffffffffffff1614610565576040517f08c379a000000000000000000000000000000000000000000000000000000000815260040161055c906124b0565b60405180910390fd5b61056e8161191e565b50565b6009818051602081018201805184825260208301602085012081835280955050505050505f91509050805f0180546105a8906124fb565b80601f01602080910402602001604051908101604052809291908181526020018280546105d4906124fb565b801561061f5780601f106105f65761010080835404028352916020019161061f565b820191905f5260205f20905b81548152906001019060200180831161060257829003601f168201915b505050505090806001015f9054906101000a900473ffffffffffffffffffffffffffffffffffffffff1690806002015f9054906101000a900473ffffffffffffffffffffffffffffffffffffffff1690806003015490806004015490806005015490806006018054610690906124fb565b80601f01602080910402602001604051908101604052809291908181526020018280546106bc906124fb565b80156107075780601f106106de57610100808354040283529160200191610707565b820191905f5260205f20905b8154815290600101906020018083116106ea57829003601f168201915b50505050509080600701805461071c906124fb565b80601f0160208091040260200160405190810160405280929190818152602001828054610748906124fb565b80156107935780601f1061076a57610100808354040283529160200191610793565b820191905f5260205f20905b81548152906001019060200180831161077657829003601f168201915b505050505090806008015490806009015f9054906101000a900460ff1690508a565b5f5f9054906101000a900473ffffffffffffffffffffffffffffffffffffffff1673ffffffffffffffffffffffffffffffffffffffff163373ffffffffffffffffffffffffffffffffffffffff1614610843576040517f08c379a000000000000000000000000000000000000000000000000000000000815260040161083a906124b0565b60405180910390fd5b60075f8573ffffffffffffffffffffffffffffffffffffffff1673ffffffffffffffffffffffffffffffffffffffff1681526020019081526020015f205f81548092919061089090612558565b91905055508260085f8673ffffffffffffffffffffffffffffffffffffffff1673ffffffffffffffffffffffffffffffffffffffff1681526020019081526020015f20819055505f5f5f1b90505f60065f8773ffffffffffffffffffffffffffffffffffffffff1673ffffffffffffffffffffffffffffffffffffffff1681526020019081526020015f208054905090505f811115610a13575f60065f8873ffffffffffffffffffffffffffffffffffffffff1673ffffffffffffffffffffffffffffffffffffffff1681526020019081526020015f20600183610974919061259f565b81548110610985576109846125d2565b5b905f5260205f2090600602016040518060c00160405290815f8201548152602001600182015481526020016002820154815260200160038201548152602001600482015481526020016005820154815250509050805f0151816020015182608001516040516020016109f99392919061261f565b604051602081830303815290604052805190602001209250505b60065f8773ffffffffffffffffffffffffffffffffffffffff1673ffffffffffffffffffffffffffffffffffffffff1681526020019081526020015f206040518060c0016040528087815260200186815260200160075f8a73ffffffffffffffffffffffffffffffffffffffff1673ffffffffffffffffffffffffffffffffffffffff1681526020019081526020015f2054815260200185815260200142815260200184815250908060018154018082558091505060019003905f5260205f2090600602015f909190919091505f820151815f01556020820151816001015560408201518160020155606082015181600301556080820151816004015560a0820151816005015550508573ffffffffffffffffffffffffffffffffffffffff167f49665851c2c1601b5b00da6af7926daca0e07b35b4804bc3a13bee80c0891e2b868660075f8b73ffffffffffffffffffffffffffffffffffffffff1673ffffffffffffffffffffffffffffffffffffffff1681526020019081526020015f205442604051610ba5949392919061265b565b60405180910390a2505050505050565b5f81600354148015610bcb57505f5f1b60035414155b9050919050565b5f5f9054906101000a900473ffffffffffffffffffffffffffffffffffffffff1681565b606060065f8373ffffffffffffffffffffffffffffffffffffffff1673ffffffffffffffffffffffffffffffffffffffff1681526020019081526020015f20805480602002602001604051908101604052809291908181526020015f905b82821015610cbf578382905f5260205f2090600602016040518060c00160405290815f82015481526020016001820154815260200160028201548152602001600382015481526020016004820154815260200160058201548152505081526020019060010190610c54565b505050509050919050565b6006602052815f5260405f208181548110610ce3575f80fd5b905f5260205f2090600602015f9150915050805f0154908060010154908060020154908060030154908060040154908060050154905086565b610d24611a13565b600982604051610d3491906126d8565b9081526020016040518091039020604051806101400160405290815f82018054610d5d906124fb565b80601f0160208091040260200160405190810160405280929190818152602001828054610d89906124fb565b8015610dd45780601f10610dab57610100808354040283529160200191610dd4565b820191905f5260205f20905b815481529060010190602001808311610db757829003601f168201915b50505050508152602001600182015f9054906101000a900473ffffffffffffffffffffffffffffffffffffffff1673ffffffffffffffffffffffffffffffffffffffff1673ffffffffffffffffffffffffffffffffffffffff168152602001600282015f9054906101000a900473ffffffffffffffffffffffffffffffffffffffff1673ffffffffffffffffffffffffffffffffffffffff1673ffffffffffffffffffffffffffffffffffffffff168152602001600382015481526020016004820154815260200160058201548152602001600682018054610eb5906124fb565b80601f0160208091040260200160405190810160405280929190818152602001828054610ee1906124fb565b8015610f2c5780601f10610f0357610100808354040283529160200191610f2c565b820191905f5260205f20905b815481529060010190602001808311610f0f57829003601f168201915b50505050508152602001600782018054610f45906124fb565b80601f0160208091040260200160405190810160405280929190818152602001828054610f71906124fb565b8015610fbc5780601f10610f9357610100808354040283529160200191610fbc565b820191905f5260205f20905b815481529060010190602001808311610f9f57829003601f168201915b5050505050815260200160088201548152602001600982015f9054906101000a900460ff1615151515815250509050919050565b5f5f9054906101000a900473ffffffffffffffffffffffffffffffffffffffff1673ffffffffffffffffffffffffffffffffffffffff163373ffffffffffffffffffffffffffffffffffffffff161461107e576040517f08c379a0000000000000000000000000000000000000000000000000000000008152600401611075906124b0565b60405180910390fd5b8160038190555042600481905550806005908161109b919061288e565b50817f03b553b8a7d5b9f30ffabed24adc9e3ddf9ada50b08bc380b259646cd91a00c182426040516110ce92919061295d565b60405180910390a25050565b60025481565b5f600b80549050905090565b6008602052805f5260405f205f915090505481565b600b8181548110611110575f80fd5b905f5260205f20015f915090508054611128906124fb565b80601f0160208091040260200160405190810160405280929190818152602001828054611154906124fb565b801561119f5780601f106111765761010080835404028352916020019161119f565b820191905f5260205f20905b81548152906001019060200180831161118257829003601f168201915b505050505081565b5f60065f8373ffffffffffffffffffffffffffffffffffffffff1673ffffffffffffffffffffffffffffffffffffffff1681526020019081526020015f20805490509050919050565b600a602052805f5260405f205f915054906101000a900460ff1681565b5f5f9054906101000a900473ffffffffffffffffffffffffffffffffffffffff1673ffffffffffffffffffffffffffffffffffffffff163373ffffffffffffffffffffffffffffffffffffffff161461129b576040517f08c379a0000000000000000000000000000000000000000000000000000000008152600401611292906124b0565b60405180910390fd5b6009886040516112ab91906126d8565b90815260200160405180910390206009015f9054906101000a900460ff1615611309576040517f08c379a0000000000000000000000000000000000000000000000000000000008152600401611300906129d5565b60405180910390fd5b6040518061014001604052808981526020018873ffffffffffffffffffffffffffffffffffffffff1681526020018773ffffffffffffffffffffffffffffffffffffffff1681526020018681526020018581526020018481526020018381526020018281526020014281526020016001151581525060098960405161138e91906126d8565b90815260200160405180910390205f820151815f0190816113af919061288e565b506020820151816001015f6101000a81548173ffffffffffffffffffffffffffffffffffffffff021916908373ffffffffffffffffffffffffffffffffffffffff1602179055506040820151816002015f6101000a81548173ffffffffffffffffffffffffffffffffffffffff021916908373ffffffffffffffffffffffffffffffffffffffff160217905550606082015181600301556080820151816004015560a0820151816005015560c082015181600601908161146f919061288e565b5060e0820151816007019081611485919061288e565b506101008201518160080155610120820151816009015f6101000a81548160ff021916908315150217905550905050600b88908060018154018082558091505060019003905f5260205f20015f9091909190915090816114e5919061288e565b508673ffffffffffffffffffffffffffffffffffffffff168860405161150b91906126d8565b60405180910390207fbe0e3d4d311c35635aff04a96358abc5ca69971f736106593842fca3d202885f848488884260405161154a9594939291906129f3565b60405180910390a36040518060400160405280601381526020017f424c4f434b5f414e445f424c41434b4c49535400000000000000000000000000815250805190602001208180519060200120036115f4576115a58761191e565b8673ffffffffffffffffffffffffffffffffffffffff167fbaa83c8f3a01a46965a5dcb58df35f4508631bab278a7eedd2355cf651a6ea14426040516115eb9190612ac2565b60405180910390a25b6040518060400160405280600581526020017f424c4f434b000000000000000000000000000000000000000000000000000000815250805190602001208180519060200120148061168757506040518060400160405280601381526020017f424c4f434b5f414e445f424c41434b4c49535400000000000000000000000000815250805190602001208180519060200120145b806116d457506040518060400160405280600681526020017f465245455a450000000000000000000000000000000000000000000000000000815250805190602001208180519060200120145b1561172a578673ffffffffffffffffffffffffffffffffffffffff167fbaa83c8f3a01a46965a5dcb58df35f4508631bab278a7eedd2355cf651a6ea14824260405161172192919061295d565b60405180910390a25b611736878486886107b5565b5050505050505050565b60045481565b6007602052805f5260405f205f915090505481565b5f5f9054906101000a900473ffffffffffffffffffffffffffffffffffffffff1673ffffffffffffffffffffffffffffffffffffffff163373ffffffffffffffffffffffffffffffffffffffff16146117e9576040517f08c379a00000000000000000000000000000000000000000000000000000000081526004016117e0906124b0565b60405180910390fd5b5f600a5f8373ffffffffffffffffffffffffffffffffffffffff1673ffffffffffffffffffffffffffffffffffffffff1681526020019081526020015f205f6101000a81548160ff02191690831515021790555050565b6005805461184d906124fb565b80601f0160208091040260200160405190810160405280929190818152602001828054611879906124fb565b80156118c45780601f1061189b576101008083540402835291602001916118c4565b820191905f5260205f20905b8154815290600101906020018083116118a757829003601f168201915b505050505081565b5f600a5f8373ffffffffffffffffffffffffffffffffffffffff1673ffffffffffffffffffffffffffffffffffffffff1681526020019081526020015f205f9054906101000a900460ff169050919050565b600a5f8273ffffffffffffffffffffffffffffffffffffffff1673ffffffffffffffffffffffffffffffffffffffff1681526020019081526020015f205f9054906101000a900460ff16611a10576001600a5f8373ffffffffffffffffffffffffffffffffffffffff1673ffffffffffffffffffffffffffffffffffffffff1681526020019081526020015f205f6101000a81548160ff0219169083151502179055508073ffffffffffffffffffffffffffffffffffffffff167f8b77a7362ee4a5033b8ea6ed905f1454f7767befb6058dbba9e30ca53cc0d67742604051611a079190611ad6565b60405180910390a25b50565b604051806101400160405280606081526020015f73ffffffffffffffffffffffffffffffffffffffff1681526020015f73ffffffffffffffffffffffffffffffffffffffff1681526020015f81526020015f81526020015f815260200160608152602001606081526020015f81526020015f151581525090565b5f819050919050565b611a9f81611a8d565b82525050565b5f602082019050611ab85f830184611a96565b92915050565b5f819050919050565b611ad081611abe565b82525050565b5f602082019050611ae95f830184611ac7565b92915050565b5f604051905090565b5f5ffd5b5f5ffd5b5f73ffffffffffffffffffffffffffffffffffffffff82169050919050565b5f611b2982611b00565b9050919050565b611b3981611b1f565b8114611b43575f5ffd5b50565b5f81359050611b5481611b30565b92915050565b5f60208284031215611b6f57611b6e611af8565b5b5f611b7c84828501611b46565b91505092915050565b5f5ffd5b5f5ffd5b5f601f19601f8301169050919050565b7f4e487b71000000000000000000000000000000000000000000000000000000005f52604160045260245ffd5b611bd382611b8d565b810181811067ffffffffffffffff82111715611bf257611bf1611b9d565b5b80604052505050565b5f611c04611aef565b9050611c108282611bca565b919050565b5f67ffffffffffffffff821115611c2f57611c2e611b9d565b5b611c3882611b8d565b9050602081019050919050565b828183375f83830152505050565b5f611c65611c6084611c15565b611bfb565b905082815260208101848484011115611c8157611c80611b89565b5b611c8c848285611c45565b509392505050565b5f82601f830112611ca857611ca7611b85565b5b8135611cb8848260208601611c53565b91505092915050565b5f60208284031215611cd657611cd5611af8565b5b5f82013567ffffffffffffffff811115611cf357611cf2611afc565b5b611cff84828501611c94565b91505092915050565b5f81519050919050565b5f82825260208201905092915050565b8281835e5f83830152505050565b5f611d3a82611d08565b611d448185611d12565b9350611d54818560208601611d22565b611d5d81611b8d565b840191505092915050565b611d7181611b1f565b82525050565b5f8115159050919050565b611d8b81611d77565b82525050565b5f610140820190508181035f830152611daa818d611d30565b9050611db9602083018c611d68565b611dc6604083018b611d68565b611dd3606083018a611ac7565b611de06080830189611ac7565b611ded60a0830188611ac7565b81810360c0830152611dff8187611d30565b905081810360e0830152611e138186611d30565b9050611e23610100830185611ac7565b611e31610120830184611d82565b9b9a5050505050505050505050565b611e4981611abe565b8114611e53575f5ffd5b50565b5f81359050611e6481611e40565b92915050565b5f5f5f5f60808587031215611e8257611e81611af8565b5b5f611e8f87828801611b46565b9450506020611ea087828801611e56565b9350506040611eb187828801611e56565b9250506060611ec287828801611e56565b91505092959194509250565b611ed781611a8d565b8114611ee1575f5ffd5b50565b5f81359050611ef281611ece565b92915050565b5f60208284031215611f0d57611f0c611af8565b5b5f611f1a84828501611ee4565b91505092915050565b5f602082019050611f365f830184611d82565b92915050565b5f602082019050611f4f5f830184611d68565b92915050565b5f81519050919050565b5f82825260208201905092915050565b5f819050602082019050919050565b611f8781611abe565b82525050565b611f9681611a8d565b82525050565b60c082015f820151611fb05f850182611f7e565b506020820151611fc36020850182611f7e565b506040820151611fd66040850182611f7e565b506060820151611fe96060850182611f7e565b506080820151611ffc6080850182611f7e565b5060a082015161200f60a0850182611f8d565b50505050565b5f6120208383611f9c565b60c08301905092915050565b5f602082019050919050565b5f61204282611f55565b61204c8185611f5f565b935061205783611f6f565b805f5b8381101561208757815161206e8882612015565b97506120798361202c565b92505060018101905061205a565b5085935050505092915050565b5f6020820190508181035f8301526120ac8184612038565b905092915050565b5f5f604083850312156120ca576120c9611af8565b5b5f6120d785828601611b46565b92505060206120e885828601611e56565b9150509250929050565b5f60c0820190506121055f830189611ac7565b6121126020830188611ac7565b61211f6040830187611ac7565b61212c6060830186611ac7565b6121396080830185611ac7565b61214660a0830184611a96565b979650505050505050565b5f82825260208201905092915050565b5f61216b82611d08565b6121758185612151565b9350612185818560208601611d22565b61218e81611b8d565b840191505092915050565b6121a281611b1f565b82525050565b6121b181611d77565b82525050565b5f61014083015f8301518482035f8601526121d28282612161565b91505060208301516121e76020860182612199565b5060408301516121fa6040860182612199565b50606083015161220d6060860182611f7e565b5060808301516122206080860182611f7e565b5060a083015161223360a0860182611f7e565b5060c083015184820360c086015261224b8282612161565b91505060e083015184820360e08601526122658282612161565b91505061010083015161227c610100860182611f7e565b506101208301516122916101208601826121a8565b508091505092915050565b5f6020820190508181035f8301526122b481846121b7565b905092915050565b5f5f604083850312156122d2576122d1611af8565b5b5f6122df85828601611ee4565b925050602083013567ffffffffffffffff811115612300576122ff611afc565b5b61230c85828601611c94565b9150509250929050565b5f6020828403121561232b5761232a611af8565b5b5f61233884828501611e56565b91505092915050565b5f6020820190508181035f8301526123598184611d30565b905092915050565b5f5f5f5f5f5f5f5f610100898b03121561237e5761237d611af8565b5b5f89013567ffffffffffffffff81111561239b5761239a611afc565b5b6123a78b828c01611c94565b98505060206123b88b828c01611b46565b97505060406123c98b828c01611b46565b96505060606123da8b828c01611e56565b95505060806123eb8b828c01611e56565b94505060a06123fc8b828c01611e56565b93505060c089013567ffffffffffffffff81111561241d5761241c611afc565b5b6124298b828c01611c94565b92505060e089013567ffffffffffffffff81111561244a57612449611afc565b5b6124568b828c01611c94565b9150509295985092959890939650565b7f4e6f7420617574686f72697a65640000000000000000000000000000000000005f82015250565b5f61249a600e83611d12565b91506124a582612466565b602082019050919050565b5f6020820190508181035f8301526124c78161248e565b9050919050565b7f4e487b71000000000000000000000000000000000000000000000000000000005f52602260045260245ffd5b5f600282049050600182168061251257607f821691505b602082108103612525576125246124ce565b5b50919050565b7f4e487b71000000000000000000000000000000000000000000000000000000005f52601160045260245ffd5b5f61256282611abe565b91507fffffffffffffffffffffffffffffffffffffffffffffffffffffffffffffffff82036125945761259361252b565b5b600182019050919050565b5f6125a982611abe565b91506125b483611abe565b92508282039050818111156125cc576125cb61252b565b5b92915050565b7f4e487b71000000000000000000000000000000000000000000000000000000005f52603260045260245ffd5b5f819050919050565b61261961261482611abe565b6125ff565b82525050565b5f61262a8286612608565b60208201915061263a8285612608565b60208201915061264a8284612608565b602082019150819050949350505050565b5f60808201905061266e5f830187611ac7565b61267b6020830186611ac7565b6126886040830185611ac7565b6126956060830184611ac7565b95945050505050565b5f81905092915050565b5f6126b282611d08565b6126bc818561269e565b93506126cc818560208601611d22565b80840191505092915050565b5f6126e382846126a8565b915081905092915050565b5f819050815f5260205f209050919050565b5f6020601f8301049050919050565b5f82821b905092915050565b5f6008830261274a7fffffffffffffffffffffffffffffffffffffffffffffffffffffffffffffffff8261270f565b612754868361270f565b95508019841693508086168417925050509392505050565b5f819050919050565b5f61278f61278a61278584611abe565b61276c565b611abe565b9050919050565b5f819050919050565b6127a883612775565b6127bc6127b482612796565b84845461271b565b825550505050565b5f5f905090565b6127d36127c4565b6127de81848461279f565b505050565b5b81811015612801576127f65f826127cb565b6001810190506127e4565b5050565b601f82111561284657612817816126ee565b61282084612700565b8101602085101561282f578190505b61284361283b85612700565b8301826127e3565b50505b505050565b5f82821c905092915050565b5f6128665f198460080261284b565b1980831691505092915050565b5f61287e8383612857565b9150826002028217905092915050565b61289782611d08565b67ffffffffffffffff8111156128b0576128af611b9d565b5b6128ba82546124fb565b6128c5828285612805565b5f60209050601f8311600181146128f6575f84156128e4578287015190505b6128ee8582612873565b865550612955565b601f198416612904866126ee565b5f5b8281101561292b57848901518255600182019150602085019450602081019050612906565b868310156129485784890151612944601f891682612857565b8355505b6001600288020188555050505b505050505050565b5f6040820190508181035f8301526129758185611d30565b90506129846020830184611ac7565b9392505050565b7f416c7265616479206c6f676765640000000000000000000000000000000000005f82015250565b5f6129bf600e83611d12565b91506129ca8261298b565b602082019050919050565b5f6020820190508181035f8301526129ec816129b3565b9050919050565b5f60a0820190508181035f830152612a0b8188611d30565b90508181036020830152612a1f8187611d30565b9050612a2e6040830186611ac7565b612a3b6060830185611ac7565b612a486080830184611ac7565b9695505050505050565b7f4175746f2d626c61636b6c69737465643a20686967682066726175642073636f5f8201527f7265000000000000000000000000000000000000000000000000000000000000602082015250565b5f612aac602283611d12565b9150612ab782612a52565b604082019050919050565b5f6040820190508181035f830152612ad981612aa0565b9050612ae86020830184611ac7565b9291505056fea2646970667358221220d8e1774d521a21c8c4592463d1857202ae39607167fd71f746277ca76701558464736f6c634300081c0033",
  "linkReferences": {},
  "deployedLinkReferences": {},
  "immutableReferences": {},
  "inputSourceName": "project/contracts/FraudDetection.sol",
  "buildInfoId": "solc-0_8_28-009e4cfeb41892bb6588d30d0fd6072c77bc351e"
}